{
  "address": "0x5FAC7F2c99d9e06deff2f579FDE67a2eCDf0E0aC",
  "abi": [
    {
      "inputs": [
        {
          "internalType": "string",
          "name": "_name",
          "type": "string"
        },
        {
          "internalType": "string",
          "name": "_symbol",
          "type": "string"
        },
        {
          "internalType": "address",
          "name": "_lzEndpoint",
          "type": "address"
        },
        {
          "internalType": "address",
          "name": "_delegate",
          "type": "address"
        },
        {
          "internalType": "address",
          "name": "_USDC",
          "type": "address"
        }
      ],
      "stateMutability": "nonpayable",
      "type": "constructor"
    },
    {
      "inputs": [
        {
          "internalType": "uint256",
          "name": "amountSD",
          "type": "uint256"
        }
      ],
      "name": "AmountSDOverflowed",
      "type": "error"
    },
    {
      "inputs": [
        {
          "internalType": "address",
          "name": "spender",
          "type": "address"
        },
        {
          "internalType": "uint256",
          "name": "allowance",
          "type": "uint256"
        },
        {
          "internalType": "uint256",
          "name": "needed",
          "type": "uint256"
        }
      ],
      "name": "ERC20InsufficientAllowance",
      "type": "error"
    },
    {
      "inputs": [
        {
          "internalType": "address",
          "name": "sender",
          "type": "address"
        },
        {
          "internalType": "uint256",
          "name": "balance",
          "type": "uint256"
        },
        {
          "internalType": "uint256",
          "name": "needed",
          "type": "uint256"
        }
      ],
      "name": "ERC20InsufficientBalance",
      "type": "error"
    },
    {
      "inputs": [
        {
          "internalType": "address",
          "name": "approver",
          "type": "address"
        }
      ],
      "name": "ERC20InvalidApprover",
      "type": "error"
    },
    {
      "inputs": [
        {
          "internalType": "address",
          "name": "receiver",
          "type": "address"
        }
      ],
      "name": "ERC20InvalidReceiver",
      "type": "error"
    },
    {
      "inputs": [
        {
          "internalType": "address",
          "name": "sender",
          "type": "address"
        }
      ],
      "name": "ERC20InvalidSender",
      "type": "error"
    },
    {
      "inputs": [
        {
          "internalType": "address",
          "name": "spender",
          "type": "address"
        }
      ],
      "name": "ERC20InvalidSpender",
      "type": "error"
    },
    {
      "inputs": [
        {
          "internalType": "address",
          "name": "router",
          "type": "address"
        },
        {
          "internalType": "bytes",
          "name": "message",
          "type": "bytes"
        }
      ],
      "name": "ExecutionFailed",
      "type": "error"
    },
    {
      "inputs": [],
      "name": "InsufficientAllowance",
      "type": "error"
    },
    {
      "inputs": [],
      "name": "InsufficientBalance",
      "type": "error"
    },
    {
      "inputs": [],
      "name": "InvalidDelegate",
      "type": "error"
    },
    {
      "inputs": [],
      "name": "InvalidEndpointCall",
      "type": "error"
    },
    {
      "inputs": [],
      "name": "InvalidLocalDecimals",
      "type": "error"
    },
    {
      "inputs": [
        {
          "internalType": "bytes",
          "name": "options",
          "type": "bytes"
        }
      ],
      "name": "InvalidOptions",
      "type": "error"
    },
    {
      "inputs": [],
      "name": "InvalidReceiver",
      "type": "error"
    },
    {
      "inputs": [],
      "name": "LzTokenUnavailable",
      "type": "error"
    },
    {
      "inputs": [
        {
          "internalType": "uint32",
          "name": "eid",
          "type": "uint32"
        }
      ],
      "name": "NoPeer",
      "type": "error"
    },
    {
      "inputs": [
        {
          "internalType": "uint256",
          "name": "msgValue",
          "type": "uint256"
        }
      ],
      "name": "NotEnoughNative",
      "type": "error"
    },
    {
      "inputs": [
        {
          "internalType": "address",
          "name": "addr",
          "type": "address"
        }
      ],
      "name": "OnlyEndpoint",
      "type": "error"
    },
    {
      "inputs": [
        {
          "internalType": "uint32",
          "name": "eid",
          "type": "uint32"
        },
        {
          "internalType": "bytes32",
          "name": "sender",
          "type": "bytes32"
        }
      ],
      "name": "OnlyPeer",
      "type": "error"
    },
    {
      "inputs": [],
      "name": "OnlySelf",
      "type": "error"
    },
    {
      "inputs": [
        {
          "internalType": "address",
          "name": "owner",
          "type": "address"
        }
      ],
      "name": "OwnableInvalidOwner",
      "type": "error"
    },
    {
      "inputs": [
        {
          "internalType": "address",
          "name": "account",
          "type": "address"
        }
      ],
      "name": "OwnableUnauthorizedAccount",
      "type": "error"
    },
    {
      "inputs": [
        {
          "internalType": "address",
          "name": "token",
          "type": "address"
        }
      ],
      "name": "SafeERC20FailedOperation",
      "type": "error"
    },
    {
      "inputs": [
        {
          "internalType": "bytes",
          "name": "result",
          "type": "bytes"
        }
      ],
      "name": "SimulationResult",
      "type": "error"
    },
    {
      "inputs": [
        {
          "internalType": "uint256",
          "name": "amountLD",
          "type": "uint256"
        },
        {
          "internalType": "uint256",
          "name": "minAmountLD",
          "type": "uint256"
        }
      ],
      "name": "SlippageExceeded",
      "type": "error"
    },
    {
      "inputs": [
        {
          "internalType": "address",
          "name": "router",
          "type": "address"
        }
      ],
      "name": "UnauthorizedRouter",
      "type": "error"
    },
    {
      "anonymous": false,
      "inputs": [
        {
          "indexed": true,
          "internalType": "address",
          "name": "owner",
          "type": "address"
        },
        {
          "indexed": true,
          "internalType": "address",
          "name": "spender",
          "type": "address"
        },
        {
          "indexed": false,
          "internalType": "uint256",
          "name": "value",
          "type": "uint256"
        }
      ],
      "name": "Approval",
      "type": "event"
    },
    {
      "anonymous": false,
      "inputs": [
        {
          "indexed": true,
          "internalType": "address",
          "name": "authorizer",
          "type": "address"
        },
        {
          "indexed": true,
          "internalType": "bytes32",
          "name": "nonce",
          "type": "bytes32"
        }
      ],
      "name": "AuthorizationCanceled",
      "type": "event"
    },
    {
      "anonymous": false,
      "inputs": [
        {
          "indexed": true,
          "internalType": "address",
          "name": "authorizer",
          "type": "address"
        },
        {
          "indexed": true,
          "internalType": "bytes32",
          "name": "nonce",
          "type": "bytes32"
        }
      ],
      "name": "AuthorizationUsed",
      "type": "event"
    },
    {
      "anonymous": false,
      "inputs": [
        {
          "indexed": true,
          "internalType": "address",
          "name": "account",
          "type": "address"
        },
        {
          "indexed": false,
          "internalType": "uint256",
          "name": "amount",
          "type": "uint256"
        }
      ],
      "name": "Deposit",
      "type": "event"
    },
    {
      "anonymous": false,
      "inputs": [
        {
          "components": [
            {
              "internalType": "uint32",
              "name": "eid",
              "type": "uint32"
            },
            {
              "internalType": "uint16",
              "name": "msgType",
              "type": "uint16"
            },
            {
              "internalType": "bytes",
              "name": "options",
              "type": "bytes"
            }
          ],
          "indexed": false,
          "internalType": "struct EnforcedOptionParam[]",
          "name": "_enforcedOptions",
          "type": "tuple[]"
        }
      ],
      "name": "EnforcedOptionSet",
      "type": "event"
    },
    {
      "anonymous": false,
      "inputs": [
        {
          "indexed": false,
          "internalType": "address",
          "name": "inspector",
          "type": "address"
        }
      ],
      "name": "MsgInspectorSet",
      "type": "event"
    },
    {
      "anonymous": false,
      "inputs": [
        {
          "indexed": true,
          "internalType": "bytes32",
          "name": "guid",
          "type": "bytes32"
        },
        {
          "indexed": false,
          "internalType": "uint32",
          "name": "srcEid",
          "type": "uint32"
        },
        {
          "indexed": true,
          "internalType": "address",
          "name": "toAddress",
          "type": "address"
        },
        {
          "indexed": false,
          "internalType": "uint256",
          "name": "amountReceivedLD",
          "type": "uint256"
        }
      ],
      "name": "OFTReceived",
      "type": "event"
    },
    {
      "anonymous": false,
      "inputs": [
        {
          "indexed": true,
          "internalType": "bytes32",
          "name": "guid",
          "type": "bytes32"
        },
        {
          "indexed": false,
          "internalType": "uint32",
          "name": "dstEid",
          "type": "uint32"
        },
        {
          "indexed": true,
          "internalType": "address",
          "name": "fromAddress",
          "type": "address"
        },
        {
          "indexed": false,
          "internalType": "uint256",
          "name": "amountSentLD",
          "type": "uint256"
        },
        {
          "indexed": false,
          "internalType": "uint256",
          "name": "amountReceivedLD",
          "type": "uint256"
        }
      ],
      "name": "OFTSent",
      "type": "event"
    },
    {
      "anonymous": false,
      "inputs": [
        {
          "indexed": true,
          "internalType": "address",
          "name": "previousOwner",
          "type": "address"
        },
        {
          "indexed": true,
          "internalType": "address",
          "name": "newOwner",
          "type": "address"
        }
      ],
      "name": "OwnershipTransferred",
      "type": "event"
    },
    {
      "anonymous": false,
      "inputs": [
        {
          "indexed": false,
          "internalType": "uint32",
          "name": "eid",
          "type": "uint32"
        },
        {
          "indexed": false,
          "internalType": "bytes32",
          "name": "peer",
          "type": "bytes32"
        }
      ],
      "name": "PeerSet",
      "type": "event"
    },
    {
      "anonymous": false,
      "inputs": [
        {
          "indexed": false,
          "internalType": "address",
          "name": "preCrimeAddress",
          "type": "address"
        }
      ],
      "name": "PreCrimeSet",
      "type": "event"
    },
    {
      "anonymous": false,
      "inputs": [
        {
          "indexed": true,
          "internalType": "address",
          "name": "from",
          "type": "address"
        },
        {
          "indexed": true,
          "internalType": "address",
          "name": "to",
          "type": "address"
        },
        {
          "indexed": false,
          "internalType": "uint256",
          "name": "value",
          "type": "uint256"
        }
      ],
      "name": "Transfer",
      "type": "event"
    },
    {
      "anonymous": false,
      "inputs": [
        {
          "indexed": true,
          "internalType": "address",
          "name": "account",
          "type": "address"
        },
        {
          "indexed": false,
          "internalType": "uint256",
          "name": "amount",
          "type": "uint256"
        }
      ],
      "name": "Withdraw",
      "type": "event"
    },
    {
      "anonymous": false,
      "inputs": [
        {
          "indexed": true,
          "internalType": "address",
          "name": "from",
          "type": "address"
        },
        {
          "indexed": true,
          "internalType": "address",
          "name": "to",
          "type": "address"
        },
        {
          "indexed": true,
          "internalType": "bytes32",
          "name": "nonce",
          "type": "bytes32"
        },
        {
          "indexed": false,
          "internalType": "uint256",
          "name": "amount",
          "type": "uint256"
        }
      ],
      "name": "x402Bridge",
      "type": "event"
    },
    {
      "inputs": [],
      "name": "CANCEL_AUTHORIZATION_TYPEHASH",
      "outputs": [
        {
          "internalType": "bytes32",
          "name": "",
          "type": "bytes32"
        }
      ],
      "stateMutability": "view",
      "type": "function"
    },
    {
      "inputs": [],
      "name": "DOMAIN_SEPARATOR",
      "outputs": [
        {
          "internalType": "bytes32",
          "name": "",
          "type": "bytes32"
        }
      ],
      "stateMutability": "view",
      "type": "function"
    },
    {
      "inputs": [],
      "name": "RECEIVE_WITH_AUTHORIZATION_EXTENDED_TYPEHASH",
      "outputs": [
        {
          "internalType": "bytes32",
          "name": "",
          "type": "bytes32"
        }
      ],
      "stateMutability": "view",
      "type": "function"
    },
    {
      "inputs": [],
      "name": "RECEIVE_WITH_AUTHORIZATION_TYPEHASH",
      "outputs": [
        {
          "internalType": "bytes32",
          "name": "",
          "type": "bytes32"
        }
      ],
      "stateMutability": "view",
      "type": "function"
    },
    {
      "inputs": [],
      "name": "SEND",
      "outputs": [
        {
          "internalType": "uint16",
          "name": "",
          "type": "uint16"
        }
      ],
      "stateMutability": "view",
      "type": "function"
    },
    {
      "inputs": [],
      "name": "SEND_AND_CALL",
      "outputs": [
        {
          "internalType": "uint16",
          "name": "",
          "type": "uint16"
        }
      ],
      "stateMutability": "view",
      "type": "function"
    },
    {
      "inputs": [],
      "name": "TRANSFER_WITH_AUTHORIZATION_EXTENDED_TYPEHASH",
      "outputs": [
        {
          "internalType": "bytes32",
          "name": "",
          "type": "bytes32"
        }
      ],
      "stateMutability": "view",
      "type": "function"
    },
    {
      "inputs": [],
      "name": "TRANSFER_WITH_AUTHORIZATION_TYPEHASH",
      "outputs": [
        {
          "internalType": "bytes32",
          "name": "",
          "type": "bytes32"
        }
      ],
      "stateMutability": "view",
      "type": "function"
    },
    {
      "inputs": [],
      "name": "USDC",
      "outputs": [
        {
          "internalType": "contract ERC20",
          "name": "",
          "type": "address"
        }
      ],
      "stateMutability": "view",
      "type": "function"
    },
    {
      "inputs": [],
      "name": "_decimals",
      "outputs": [
        {
          "internalType": "uint256",
          "name": "",
          "type": "uint256"
        }
      ],
      "stateMutability": "view",
      "type": "function"
    },
    {
      "inputs": [
        {
          "components": [
            {
              "internalType": "uint32",
              "name": "srcEid",
              "type": "uint32"
            },
            {
              "internalType": "bytes32",
              "name": "sender",
              "type": "bytes32"
            },
            {
              "internalType": "uint64",
              "name": "nonce",
              "type": "uint64"
            }
          ],
          "internalType": "struct Origin",
          "name": "origin",
          "type": "tuple"
        }
      ],
      "name": "allowInitializePath",
      "outputs": [
        {
          "internalType": "bool",
          "name": "",
          "type": "bool"
        }
      ],
      "stateMutability": "view",
      "type": "function"
    },
    {
      "inputs": [
        {
          "internalType": "address",
          "name": "owner",
          "type": "address"
        },
        {
          "internalType": "address",
          "name": "spender",
          "type": "address"
        }
      ],
      "name": "allowance",
      "outputs": [
        {
          "internalType": "uint256",
          "name": "",
          "type": "uint256"
        }
      ],
      "stateMutability": "view",
      "type": "function"
    },
    {
      "inputs": [],
      "name": "approvalRequired",
      "outputs": [
        {
          "internalType": "bool",
          "name": "",
          "type": "bool"
        }
      ],
      "stateMutability": "pure",
      "type": "function"
    },
    {
      "inputs": [
        {
          "internalType": "address",
          "name": "spender",
          "type": "address"
        },
        {
          "internalType": "uint256",
          "name": "value",
          "type": "uint256"
        }
      ],
      "name": "approve",
      "outputs": [
        {
          "internalType": "bool",
          "name": "",
          "type": "bool"
        }
      ],
      "stateMutability": "nonpayable",
      "type": "function"
    },
    {
      "inputs": [
        {
          "internalType": "address",
          "name": "authorizer",
          "type": "address"
        },
        {
          "internalType": "bytes32",
          "name": "nonce",
          "type": "bytes32"
        }
      ],
      "name": "authorizationState",
      "outputs": [
        {
          "internalType": "bool",
          "name": "",
          "type": "bool"
        }
      ],
      "stateMutability": "view",
      "type": "function"
    },
    {
      "inputs": [
        {
          "internalType": "address",
          "name": "",
          "type": "address"
        }
      ],
      "name": "authorizedRouters",
      "outputs": [
        {
          "internalType": "bool",
          "name": "",
          "type": "bool"
        }
      ],
      "stateMutability": "view",
      "type": "function"
    },
    {
      "inputs": [
        {
          "internalType": "address",
          "name": "account",
          "type": "address"
        }
      ],
      "name": "balanceOf",
      "outputs": [
        {
          "internalType": "uint256",
          "name": "",
          "type": "uint256"
        }
      ],
      "stateMutability": "view",
      "type": "function"
    },
    {
      "inputs": [
        {
          "internalType": "address",
          "name": "authorizer",
          "type": "address"
        },
        {
          "internalType": "bytes32",
          "name": "nonce",
          "type": "bytes32"
        },
        {
          "internalType": "uint8",
          "name": "v",
          "type": "uint8"
        },
        {
          "internalType": "bytes32",
          "name": "r",
          "type": "bytes32"
        },
        {
          "internalType": "bytes32",
          "name": "s",
          "type": "bytes32"
        }
      ],
      "name": "cancelAuthorization",
      "outputs": [],
      "stateMutability": "nonpayable",
      "type": "function"
    },
    {
      "inputs": [
        {
          "internalType": "uint32",
          "name": "_eid",
          "type": "uint32"
        },
        {
          "internalType": "uint16",
          "name": "_msgType",
          "type": "uint16"
        },
        {
          "internalType": "bytes",
          "name": "_extraOptions",
          "type": "bytes"
        }
      ],
      "name": "combineOptions",
      "outputs": [
        {
          "internalType": "bytes",
          "name": "",
          "type": "bytes"
        }
      ],
      "stateMutability": "view",
      "type": "function"
    },
    {
      "inputs": [],
      "name": "decimalConversionRate",
      "outputs": [
        {
          "internalType": "uint256",
          "name": "",
          "type": "uint256"
        }
      ],
      "stateMutability": "view",
      "type": "function"
    },
    {
      "inputs": [],
      "name": "decimals",
      "outputs": [
        {
          "internalType": "uint8",
          "name": "",
          "type": "uint8"
        }
      ],
      "stateMutability": "view",
      "type": "function"
    },
    {
      "inputs": [
        {
          "internalType": "uint256",
          "name": "amount",
          "type": "uint256"
        }
      ],
      "name": "deposit",
      "outputs": [],
      "stateMutability": "nonpayable",
      "type": "function"
    },
    {
      "inputs": [],
      "name": "endpoint",
      "outputs": [
        {
          "internalType": "contract ILayerZeroEndpointV2",
          "name": "",
          "type": "address"
        }
      ],
      "stateMutability": "view",
      "type": "function"
    },
    {
      "inputs": [
        {
          "internalType": "uint32",
          "name": "eid",
          "type": "uint32"
        },
        {
          "internalType": "uint16",
          "name": "msgType",
          "type": "uint16"
        }
      ],
      "name": "enforcedOptions",
      "outputs": [
        {
          "internalType": "bytes",
          "name": "enforcedOption",
          "type": "bytes"
        }
      ],
      "stateMutability": "view",
      "type": "function"
    },
    {
      "inputs": [
        {
          "components": [
            {
              "internalType": "uint32",
              "name": "srcEid",
              "type": "uint32"
            },
            {
              "internalType": "bytes32",
              "name": "sender",
              "type": "bytes32"
            },
            {
              "internalType": "uint64",
              "name": "nonce",
              "type": "uint64"
            }
          ],
          "internalType": "struct Origin",
          "name": "",
          "type": "tuple"
        },
        {
          "internalType": "bytes",
          "name": "",
          "type": "bytes"
        },
        {
          "internalType": "address",
          "name": "_sender",
          "type": "address"
        }
      ],
      "name": "isComposeMsgSender",
      "outputs": [
        {
          "internalType": "bool",
          "name": "",
          "type": "bool"
        }
      ],
      "stateMutability": "view",
      "type": "function"
    },
    {
      "inputs": [
        {
          "internalType": "uint32",
          "name": "_eid",
          "type": "uint32"
        },
        {
          "internalType": "bytes32",
          "name": "_peer",
          "type": "bytes32"
        }
      ],
      "name": "isPeer",
      "outputs": [
        {
          "internalType": "bool",
          "name": "",
          "type": "bool"
        }
      ],
      "stateMutability": "view",
      "type": "function"
    },
    {
      "inputs": [
        {
          "components": [
            {
              "internalType": "uint32",
              "name": "srcEid",
              "type": "uint32"
            },
            {
              "internalType": "bytes32",
              "name": "sender",
              "type": "bytes32"
            },
            {
              "internalType": "uint64",
              "name": "nonce",
              "type": "uint64"
            }
          ],
          "internalType": "struct Origin",
          "name": "_origin",
          "type": "tuple"
        },
        {
          "internalType": "bytes32",
          "name": "_guid",
          "type": "bytes32"
        },
        {
          "internalType": "bytes",
          "name": "_message",
          "type": "bytes"
        },
        {
          "internalType": "address",
          "name": "_executor",
          "type": "address"
        },
        {
          "internalType": "bytes",
          "name": "_extraData",
          "type": "bytes"
        }
      ],
      "name": "lzReceive",
      "outputs": [],
      "stateMutability": "payable",
      "type": "function"
    },
    {
      "inputs": [
        {
          "components": [
            {
              "components": [
                {
                  "internalType": "uint32",
                  "name": "srcEid",
                  "type": "uint32"
                },
                {
                  "internalType": "bytes32",
                  "name": "sender",
                  "type": "bytes32"
                },
                {
                  "internalType": "uint64",
                  "name": "nonce",
                  "type": "uint64"
                }
              ],
              "internalType": "struct Origin",
              "name": "origin",
              "type": "tuple"
            },
            {
              "internalType": "uint32",
              "name": "dstEid",
              "type": "uint32"
            },
            {
              "internalType": "address",
              "name": "receiver",
              "type": "address"
            },
            {
              "internalType": "bytes32",
              "name": "guid",
              "type": "bytes32"
            },
            {
              "internalType": "uint256",
              "name": "value",
              "type": "uint256"
            },
            {
              "internalType": "address",
              "name": "executor",
              "type": "address"
            },
            {
              "internalType": "bytes",
              "name": "message",
              "type": "bytes"
            },
            {
              "internalType": "bytes",
              "name": "extraData",
              "type": "bytes"
            }
          ],
          "internalType": "struct InboundPacket[]",
          "name": "_packets",
          "type": "tuple[]"
        }
      ],
      "name": "lzReceiveAndRevert",
      "outputs": [],
      "stateMutability": "payable",
      "type": "function"
    },
    {
      "inputs": [
        {
          "components": [
            {
              "internalType": "uint32",
              "name": "srcEid",
              "type": "uint32"
            },
            {
              "internalType": "bytes32",
              "name": "sender",
              "type": "bytes32"
            },
            {
              "internalType": "uint64",
              "name": "nonce",
              "type": "uint64"
            }
          ],
          "internalType": "struct Origin",
          "name": "_origin",
          "type": "tuple"
        },
        {
          "internalType": "bytes32",
          "name": "_guid",
          "type": "bytes32"
        },
        {
          "internalType": "bytes",
          "name": "_message",
          "type": "bytes"
        },
        {
          "internalType": "address",
          "name": "_executor",
          "type": "address"
        },
        {
          "internalType": "bytes",
          "name": "_extraData",
          "type": "bytes"
        }
      ],
      "name": "lzReceiveSimulate",
      "outputs": [],
      "stateMutability": "payable",
      "type": "function"
    },
    {
      "inputs": [],
      "name": "msgInspector",
      "outputs": [
        {
          "internalType": "address",
          "name": "",
          "type": "address"
        }
      ],
      "stateMutability": "view",
      "type": "function"
    },
    {
      "inputs": [],
      "name": "name",
      "outputs": [
        {
          "internalType": "string",
          "name": "",
          "type": "string"
        }
      ],
      "stateMutability": "view",
      "type": "function"
    },
    {
      "inputs": [
        {
          "internalType": "uint32",
          "name": "",
          "type": "uint32"
        },
        {
          "internalType": "bytes32",
          "name": "",
          "type": "bytes32"
        }
      ],
      "name": "nextNonce",
      "outputs": [
        {
          "internalType": "uint64",
          "name": "nonce",
          "type": "uint64"
        }
      ],
      "stateMutability": "view",
      "type": "function"
    },
    {
      "inputs": [],
      "name": "oApp",
      "outputs": [
        {
          "internalType": "address",
          "name": "",
          "type": "address"
        }
      ],
      "stateMutability": "view",
      "type": "function"
    },
    {
      "inputs": [],
      "name": "oAppVersion",
      "outputs": [
        {
          "internalType": "uint64",
          "name": "senderVersion",
          "type": "uint64"
        },
        {
          "internalType": "uint64",
          "name": "receiverVersion",
          "type": "uint64"
        }
      ],
      "stateMutability": "pure",
      "type": "function"
    },
    {
      "inputs": [],
      "name": "oftVersion",
      "outputs": [
        {
          "internalType": "bytes4",
          "name": "interfaceId",
          "type": "bytes4"
        },
        {
          "internalType": "uint64",
          "name": "version",
          "type": "uint64"
        }
      ],
      "stateMutability": "pure",
      "type": "function"
    },
    {
      "inputs": [],
      "name": "owner",
      "outputs": [
        {
          "internalType": "address",
          "name": "",
          "type": "address"
        }
      ],
      "stateMutability": "view",
      "type": "function"
    },
    {
      "inputs": [
        {
          "internalType": "uint32",
          "name": "eid",
          "type": "uint32"
        }
      ],
      "name": "peers",
      "outputs": [
        {
          "internalType": "bytes32",
          "name": "peer",
          "type": "bytes32"
        }
      ],
      "stateMutability": "view",
      "type": "function"
    },
    {
      "inputs": [],
      "name": "preCrime",
      "outputs": [
        {
          "internalType": "address",
          "name": "",
          "type": "address"
        }
      ],
      "stateMutability": "view",
      "type": "function"
    },
    {
      "inputs": [
        {
          "components": [
            {
              "internalType": "uint32",
              "name": "dstEid",
              "type": "uint32"
            },
            {
              "internalType": "bytes32",
              "name": "to",
              "type": "bytes32"
            },
            {
              "internalType": "uint256",
              "name": "amountLD",
              "type": "uint256"
            },
            {
              "internalType": "uint256",
              "name": "minAmountLD",
              "type": "uint256"
            },
            {
              "internalType": "bytes",
              "name": "extraOptions",
              "type": "bytes"
            },
            {
              "internalType": "bytes",
              "name": "composeMsg",
              "type": "bytes"
            },
            {
              "internalType": "bytes",
              "name": "oftCmd",
              "type": "bytes"
            }
          ],
          "internalType": "struct SendParam",
          "name": "_sendParam",
          "type": "tuple"
        }
      ],
      "name": "quoteOFT",
      "outputs": [
        {
          "components": [
            {
              "internalType": "uint256",
              "name": "minAmountLD",
              "type": "uint256"
            },
            {
              "internalType": "uint256",
              "name": "maxAmountLD",
              "type": "uint256"
            }
          ],
          "internalType": "struct OFTLimit",
          "name": "oftLimit",
          "type": "tuple"
        },
        {
          "components": [
            {
              "internalType": "int256",
              "name": "feeAmountLD",
              "type": "int256"
            },
            {
              "internalType": "string",
              "name": "description",
              "type": "string"
            }
          ],
          "internalType": "struct OFTFeeDetail[]",
          "name": "oftFeeDetails",
          "type": "tuple[]"
        },
        {
          "components": [
            {
              "internalType": "uint256",
              "name": "amountSentLD",
              "type": "uint256"
            },
            {
              "internalType": "uint256",
              "name": "amountReceivedLD",
              "type": "uint256"
            }
          ],
          "internalType": "struct OFTReceipt",
          "name": "oftReceipt",
          "type": "tuple"
        }
      ],
      "stateMutability": "view",
      "type": "function"
    },
    {
      "inputs": [
        {
          "components": [
            {
              "internalType": "uint32",
              "name": "dstEid",
              "type": "uint32"
            },
            {
              "internalType": "bytes32",
              "name": "to",
              "type": "bytes32"
            },
            {
              "internalType": "uint256",
              "name": "amountLD",
              "type": "uint256"
            },
            {
              "internalType": "uint256",
              "name": "minAmountLD",
              "type": "uint256"
            },
            {
              "internalType": "bytes",
              "name": "extraOptions",
              "type": "bytes"
            },
            {
              "internalType": "bytes",
              "name": "composeMsg",
              "type": "bytes"
            },
            {
              "internalType": "bytes",
              "name": "oftCmd",
              "type": "bytes"
            }
          ],
          "internalType": "struct SendParam",
          "name": "_sendParam",
          "type": "tuple"
        },
        {
          "internalType": "bool",
          "name": "_payInLzToken",
          "type": "bool"
        }
      ],
      "name": "quoteSend",
      "outputs": [
        {
          "components": [
            {
              "internalType": "uint256",
              "name": "nativeFee",
              "type": "uint256"
            },
            {
              "internalType": "uint256",
              "name": "lzTokenFee",
              "type": "uint256"
            }
          ],
          "internalType": "struct MessagingFee",
          "name": "msgFee",
          "type": "tuple"
        }
      ],
      "stateMutability": "view",
      "type": "function"
    },
    {
      "inputs": [
        {
          "internalType": "address",
          "name": "from",
          "type": "address"
        },
        {
          "internalType": "address",
          "name": "to",
          "type": "address"
        },
        {
          "internalType": "uint256",
          "name": "value",
          "type": "uint256"
        },
        {
          "internalType": "uint256",
          "name": "validAfter",
          "type": "uint256"
        },
        {
          "internalType": "uint256",
          "name": "validBefore",
          "type": "uint256"
        },
        {
          "internalType": "bytes32",
          "name": "nonce",
          "type": "bytes32"
        },
        {
          "internalType": "bytes",
          "name": "data",
          "type": "bytes"
        },
        {
          "internalType": "uint8",
          "name": "v",
          "type": "uint8"
        },
        {
          "internalType": "bytes32",
          "name": "r",
          "type": "bytes32"
        },
        {
          "internalType": "bytes32",
          "name": "s",
          "type": "bytes32"
        }
      ],
      "name": "receiveWithAuthorization",
      "outputs": [],
      "stateMutability": "nonpayable",
      "type": "function"
    },
    {
      "inputs": [
        {
          "internalType": "address",
          "name": "from",
          "type": "address"
        },
        {
          "internalType": "address",
          "name": "to",
          "type": "address"
        },
        {
          "internalType": "uint256",
          "name": "value",
          "type": "uint256"
        },
        {
          "internalType": "uint256",
          "name": "validAfter",
          "type": "uint256"
        },
        {
          "internalType": "uint256",
          "name": "validBefore",
          "type": "uint256"
        },
        {
          "internalType": "bytes32",
          "name": "nonce",
          "type": "bytes32"
        },
        {
          "internalType": "uint8",
          "name": "v",
          "type": "uint8"
        },
        {
          "internalType": "bytes32",
          "name": "r",
          "type": "bytes32"
        },
        {
          "internalType": "bytes32",
          "name": "s",
          "type": "bytes32"
        }
      ],
      "name": "receiveWithAuthorization",
      "outputs": [],
      "stateMutability": "nonpayable",
      "type": "function"
    },
    {
      "inputs": [],
      "name": "renounceOwnership",
      "outputs": [],
      "stateMutability": "nonpayable",
      "type": "function"
    },
    {
      "inputs": [
        {
          "internalType": "address",
          "name": "tokenAddress",
          "type": "address"
        },
        {
          "internalType": "uint256",
          "name": "amount",
          "type": "uint256"
        }
      ],
      "name": "retrieveERC20",
      "outputs": [],
      "stateMutability": "nonpayable",
      "type": "function"
    },
    {
      "inputs": [
        {
          "components": [
            {
              "internalType": "uint32",
              "name": "dstEid",
              "type": "uint32"
            },
            {
              "internalType": "bytes32",
              "name": "to",
              "type": "bytes32"
            },
            {
              "internalType": "uint256",
              "name": "amountLD",
              "type": "uint256"
            },
            {
              "internalType": "uint256",
              "name": "minAmountLD",
              "type": "uint256"
            },
            {
              "internalType": "bytes",
              "name": "extraOptions",
              "type": "bytes"
            },
            {
              "internalType": "bytes",
              "name": "composeMsg",
              "type": "bytes"
            },
            {
              "internalType": "bytes",
              "name": "oftCmd",
              "type": "bytes"
            }
          ],
          "internalType": "struct SendParam",
          "name": "_sendParam",
          "type": "tuple"
        },
        {
          "components": [
            {
              "internalType": "uint256",
              "name": "nativeFee",
              "type": "uint256"
            },
            {
              "internalType": "uint256",
              "name": "lzTokenFee",
              "type": "uint256"
            }
          ],
          "internalType": "struct MessagingFee",
          "name": "_fee",
          "type": "tuple"
        },
        {
          "internalType": "address",
          "name": "_refundAddress",
          "type": "address"
        }
      ],
      "name": "send",
      "outputs": [
        {
          "components": [
            {
              "internalType": "bytes32",
              "name": "guid",
              "type": "bytes32"
            },
            {
              "internalType": "uint64",
              "name": "nonce",
              "type": "uint64"
            },
            {
              "components": [
                {
                  "internalType": "uint256",
                  "name": "nativeFee",
                  "type": "uint256"
                },
                {
                  "internalType": "uint256",
                  "name": "lzTokenFee",
                  "type": "uint256"
                }
              ],
              "internalType": "struct MessagingFee",
              "name": "fee",
              "type": "tuple"
            }
          ],
          "internalType": "struct MessagingReceipt",
          "name": "msgReceipt",
          "type": "tuple"
        },
        {
          "components": [
            {
              "internalType": "uint256",
              "name": "amountSentLD",
              "type": "uint256"
            },
            {
              "internalType": "uint256",
              "name": "amountReceivedLD",
              "type": "uint256"
            }
          ],
          "internalType": "struct OFTReceipt",
          "name": "oftReceipt",
          "type": "tuple"
        }
      ],
      "stateMutability": "payable",
      "type": "function"
    },
    {
      "inputs": [
        {
          "internalType": "address",
          "name": "router",
          "type": "address"
        },
        {
          "internalType": "bool",
          "name": "authorized",
          "type": "bool"
        }
      ],
      "name": "setAuthorizedRouter",
      "outputs": [],
      "stateMutability": "nonpayable",
      "type": "function"
    },
    {
      "inputs": [
        {
          "internalType": "address",
          "name": "_delegate",
          "type": "address"
        }
      ],
      "name": "setDelegate",
      "outputs": [],
      "stateMutability": "nonpayable",
      "type": "function"
    },
    {
      "inputs": [
        {
          "components": [
            {
              "internalType": "uint32",
              "name": "eid",
              "type": "uint32"
            },
            {
              "internalType": "uint16",
              "name": "msgType",
              "type": "uint16"
            },
            {
              "internalType": "bytes",
              "name": "options",
              "type": "bytes"
            }
          ],
          "internalType": "struct EnforcedOptionParam[]",
          "name": "_enforcedOptions",
          "type": "tuple[]"
        }
      ],
      "name": "setEnforcedOptions",
      "outputs": [],
      "stateMutability": "nonpayable",
      "type": "function"
    },
    {
      "inputs": [
        {
          "internalType": "address",
          "name": "_msgInspector",
          "type": "address"
        }
      ],
      "name": "setMsgInspector",
      "outputs": [],
      "stateMutability": "nonpayable",
      "type": "function"
    },
    {
      "inputs": [
        {
          "internalType": "uint32",
          "name": "_eid",
          "type": "uint32"
        },
        {
          "internalType": "bytes32",
          "name": "_peer",
          "type": "bytes32"
        }
      ],
      "name": "setPeer",
      "outputs": [],
      "stateMutability": "nonpayable",
      "type": "function"
    },
    {
      "inputs": [
        {
          "internalType": "address",
          "name": "_preCrime",
          "type": "address"
        }
      ],
      "name": "setPreCrime",
      "outputs": [],
      "stateMutability": "nonpayable",
      "type": "function"
    },
    {
      "inputs": [],
      "name": "sharedDecimals",
      "outputs": [
        {
          "internalType": "uint8",
          "name": "",
          "type": "uint8"
        }
      ],
      "stateMutability": "view",
      "type": "function"
    },
    {
      "inputs": [],
      "name": "symbol",
      "outputs": [
        {
          "internalType": "string",
          "name": "",
          "type": "string"
        }
      ],
      "stateMutability": "view",
      "type": "function"
    },
    {
      "inputs": [],
      "name": "token",
      "outputs": [
        {
          "internalType": "address",
          "name": "",
          "type": "address"
        }
      ],
      "stateMutability": "view",
      "type": "function"
    },
    {
      "inputs": [],
      "name": "totalSupply",
      "outputs": [
        {
          "internalType": "uint256",
          "name": "",
          "type": "uint256"
        }
      ],
      "stateMutability": "view",
      "type": "function"
    },
    {
      "inputs": [
        {
          "internalType": "address",
          "name": "to",
          "type": "address"
        },
        {
          "internalType": "uint256",
          "name": "value",
          "type": "uint256"
        }
      ],
      "name": "transfer",
      "outputs": [
        {
          "internalType": "bool",
          "name": "",
          "type": "bool"
        }
      ],
      "stateMutability": "nonpayable",
      "type": "function"
    },
    {
      "inputs": [
        {
          "internalType": "address",
          "name": "from",
          "type": "address"
        },
        {
          "internalType": "address",
          "name": "to",
          "type": "address"
        },
        {
          "internalType": "uint256",
          "name": "value",
          "type": "uint256"
        }
      ],
      "name": "transferFrom",
      "outputs": [
        {
          "internalType": "bool",
          "name": "",
          "type": "bool"
        }
      ],
      "stateMutability": "nonpayable",
      "type": "function"
    },
    {
      "inputs": [
        {
          "internalType": "address",
          "name": "newOwner",
          "type": "address"
        }
      ],
      "name": "transferOwnership",
      "outputs": [],
      "stateMutability": "nonpayable",
      "type": "function"
    },
    {
      "inputs": [
        {
          "internalType": "address",
          "name": "from",
          "type": "address"
        },
        {
          "internalType": "address",
          "name": "to",
          "type": "address"
        },
        {
          "internalType": "uint256",
          "name": "value",
          "type": "uint256"
        },
        {
          "internalType": "uint256",
          "name": "validAfter",
          "type": "uint256"
        },
        {
          "internalType": "uint256",
          "name": "validBefore",
          "type": "uint256"
        },
        {
          "internalType": "bytes32",
          "name": "nonce",
          "type": "bytes32"
        },
        {
          "internalType": "bytes",
          "name": "data",
          "type": "bytes"
        },
        {
          "internalType": "uint8",
          "name": "v",
          "type": "uint8"
        },
        {
          "internalType": "bytes32",
          "name": "r",
          "type": "bytes32"
        },
        {
          "internalType": "bytes32",
          "name": "s",
          "type": "bytes32"
        }
      ],
      "name": "transferWithAuthorization",
      "outputs": [],
      "stateMutability": "nonpayable",
      "type": "function"
    },
    {
      "inputs": [
        {
          "internalType": "address",
          "name": "from",
          "type": "address"
        },
        {
          "internalType": "address",
          "name": "to",
          "type": "address"
        },
        {
          "internalType": "uint256",
          "name": "value",
          "type": "uint256"
        },
        {
          "internalType": "uint256",
          "name": "validAfter",
          "type": "uint256"
        },
        {
          "internalType": "uint256",
          "name": "validBefore",
          "type": "uint256"
        },
        {
          "internalType": "bytes32",
          "name": "nonce",
          "type": "bytes32"
        },
        {
          "internalType": "uint8",
          "name": "v",
          "type": "uint8"
        },
        {
          "internalType": "bytes32",
          "name": "r",
          "type": "bytes32"
        },
        {
          "internalType": "bytes32",
          "name": "s",
          "type": "bytes32"
        }
      ],
      "name": "transferWithAuthorization",
      "outputs": [],
      "stateMutability": "nonpayable",
      "type": "function"
    },
    {
      "inputs": [
        {
          "internalType": "uint256",
          "name": "amount",
          "type": "uint256"
        }
      ],
      "name": "withdraw",
      "outputs": [],
      "stateMutability": "nonpayable",
      "type": "function"
    }
  ],
  "transactionHash": "0x7394b77bff351c669c3c65a3f59600089f75424e136604aab2b563e903371a50",
  "args": [
    "USDO",
    "USDO",
    "0x1a44076050125825900e736c501f859c50fE728c",
    "0x0187523c9b2583B52c5Ca407b68A369F1a560F1B",
    "0x833589fCD6eDb6E08f4c7C32D4f71b54bdA02913"
  ],
  "numDeployments": 1,
  "solcInputHash": "a4f0a9d2f6a0987cd433c173410d04d9",
  "bytecode": "0x60c06040526006600e553480156200001657600080fd5b5060405162004bc638038062004bc6833981016040819052620000399162000547565b84848484838360068484818181818e6001600160a01b0381166200007857604051631e4fbdf760e01b8152600060048201526024015b60405180910390fd5b620000838162000219565b506001600160a01b038083166080528116620000b257604051632d618d8160e21b815260040160405180910390fd5b60805160405163ca5eb5e160e01b81526001600160a01b0383811660048301529091169063ca5eb5e190602401600060405180830381600087803b158015620000fa57600080fd5b505af11580156200010f573d6000803e3d6000fd5b5050505050505050620001276200021460201b60201c565b60ff168360ff1610156200014e576040516301e9714b60e41b815260040160405180910390fd5b6200015b600684620005ff565b6200016890600a62000718565b60a05250600891506200017e90508382620007c0565b5060096200018d8282620007c0565b50505050505050620001bf85604051806040016040528060018152602001603160f81b8152506200026960201b60201c565b600a908155600d80546001600160a01b0319166001600160a01b038416179055600e5462000209913391620001f4916200088c565b6200020390620186a06200089a565b620002df565b5050505050620008ca565b600690565b600080546001600160a01b038381166001600160a01b0319831681178455604051919092169283917f8be0079c531659141344cd1fd0a4f28419497f9722a3daafe3b4186f6b6457e09190a35050565b8151602080840191909120825183830120604080517f8b73c3c69bb8fe3d512ecc4cf759cc79239f7b179b0ffacaa9a75d522b39400f818601528082019390935260608301919091524660808301523060a0808401919091528151808403909101815260c0909201905280519101205b92915050565b6001600160a01b0382166200030b5760405163ec442f0560e01b8152600060048201526024016200006f565b62000319600083836200031d565b5050565b6200032a8383836200032f565b505050565b6001600160a01b0383166200035e578060076000828254620003529190620008b4565b90915550620003d29050565b6001600160a01b03831660009081526005602052604090205481811015620003b35760405163391434e360e21b81526001600160a01b038516600482015260248101829052604481018390526064016200006f565b6001600160a01b03841660009081526005602052604090209082900390555b6001600160a01b038216620003f0576007805482900390556200040f565b6001600160a01b03821660009081526005602052604090208054820190555b816001600160a01b0316836001600160a01b03167fddf252ad1be2c89b69c2b068fc378daa952ba7f163c4a11628f55a4df523b3ef836040516200045591815260200190565b60405180910390a3505050565b634e487b7160e01b600052604160045260246000fd5b600082601f8301126200048a57600080fd5b81516001600160401b0380821115620004a757620004a762000462565b604051601f8301601f19908116603f01168101908282118183101715620004d257620004d262000462565b8160405283815260209250866020858801011115620004f057600080fd5b600091505b83821015620005145785820183015181830184015290820190620004f5565b6000602085830101528094505050505092915050565b80516001600160a01b03811681146200054257600080fd5b919050565b600080600080600060a086880312156200056057600080fd5b85516001600160401b03808211156200057857600080fd5b6200058689838a0162000478565b965060208801519150808211156200059d57600080fd5b50620005ac8882890162000478565b945050620005bd604087016200052a565b9250620005cd606087016200052a565b9150620005dd608087016200052a565b90509295509295909350565b634e487b7160e01b600052601160045260246000fd5b60ff8281168282160390811115620002d957620002d9620005e9565b600181815b808511156200065c578160001904821115620006405762000640620005e9565b808516156200064e57918102915b93841c939080029062000620565b509250929050565b6000826200067557506001620002d9565b816200068457506000620002d9565b81600181146200069d5760028114620006a857620006c8565b6001915050620002d9565b60ff841115620006bc57620006bc620005e9565b50506001821b620002d9565b5060208310610133831016604e8410600b8410161715620006ed575081810a620002d9565b620006f983836200061b565b8060001904821115620007105762000710620005e9565b029392505050565b60006200072960ff84168362000664565b9392505050565b600181811c908216806200074557607f821691505b6020821081036200076657634e487b7160e01b600052602260045260246000fd5b50919050565b601f8211156200032a576000816000526020600020601f850160051c81016020861015620007975750805b601f850160051c820191505b81811015620007b857828155600101620007a3565b505050505050565b81516001600160401b03811115620007dc57620007dc62000462565b620007f481620007ed845462000730565b846200076c565b602080601f8311600181146200082c5760008415620008135750858301515b600019600386901b1c1916600185901b178555620007b8565b600085815260208120601f198616915b828110156200085d578886015182559484019460019091019084016200083c565b50858210156200087c5787850151600019600388901b60f8161c191681555b5050505050600190811b01905550565b600062000729838362000664565b8082028115828204841417620002d957620002d9620005e9565b80820180821115620002d957620002d9620005e9565b60805160a0516142976200092f600039600081816108750152818161277b0152818161283b0152612a110152600081816106f401528181610e6a0152818161180d0152818161228801528181612ce201528181612f050152612fbe01526142976000f3fe6080604052600436106103a25760003560e01c806382413eac116101e7578063bb0b6a531161010d578063d9169487116100a0578063ef55bec61161006f578063ef55bec614610bcb578063f2fde38b14610beb578063fc0c546a14610658578063ff7bd03d14610c0b57600080fd5b8063d916948714610aeb578063dd62ed3e14610b1f578063e3ee160e14610b65578063e94a010214610b8557600080fd5b8063c7c7f5b3116100dc578063c7c7f5b314610a77578063ca5eb5e114610a98578063d045a0dc14610ab8578063d424388514610acb57600080fd5b8063bb0b6a53146109e3578063bc70b35414610a10578063bd815db014610a30578063c70a26a214610a4357600080fd5b80639f68b96411610185578063b387cb6511610154578063b387cb6514610963578063b6b55f2514610983578063b731ea0a146109a3578063b98bd070146109c357600080fd5b80639f68b964146108c7578063a0cc6a68146108db578063a9059cbb1461090f578063b08e649c1461092f57600080fd5b80638da5cb5b116101c15780638da5cb5b1461083057806395d89b411461084e578063963efcaa146108635780639e6f1f661461089757600080fd5b806382413eac146107f0578063857749b0146105a357806389a302711461081057600080fd5b806332424aa3116102cc5780635a049a701161026a57806370a082311161023957806370a0823114610736578063715018a61461076c5780637d25a05e146107815780637f2eecc3146107bc57600080fd5b80635a049a701461068b5780635a0dfe4d146106ab5780635e280f11146106e25780636fc1b31e1461071657600080fd5b80633b6f743b116102a65780633b6f743b1461060b5780634160a7671461063857806352ae2879146106585780635535d4611461066b57600080fd5b806332424aa3146105bf5780633400288b146105d55780633644e515146105f557600080fd5b806317442b701161034457806323b872dd1161031357806323b872dd1461054357806328cebfa1146105635780632e1a7d4d14610583578063313ce567146105a357600080fd5b806317442b70146104cd57806317fd1e2f146104ef57806318160ddd1461050f5780631f5e13341461052e57600080fd5b8063111ecdad11610380578063111ecdad1461043157806313137d6514610469578063134d4f251461047e578063156a0d0f146104a657600080fd5b806306fdde03146103a7578063095ea7b3146103d25780630d35b41514610402575b600080fd5b3480156103b357600080fd5b506103bc610c2b565b6040516103c9919061307a565b60405180910390f35b3480156103de57600080fd5b506103f26103ed3660046130a2565b610cbd565b60405190151581526020016103c9565b34801561040e57600080fd5b5061042261041d3660046130e6565b610cd7565b6040516103c99392919061311a565b34801561043d57600080fd5b50600454610451906001600160a01b031681565b6040516001600160a01b0390911681526020016103c9565b61047c61047736600461320d565b610e68565b005b34801561048a57600080fd5b50610493600281565b60405161ffff90911681526020016103c9565b3480156104b257600080fd5b506040805162b9270b60e21b815260016020820152016103c9565b3480156104d957600080fd5b50604080516001815260026020820152016103c9565b3480156104fb57600080fd5b5061047c61050a3660046130a2565b610f28565b34801561051b57600080fd5b506007545b6040519081526020016103c9565b34801561053a57600080fd5b50610493600181565b34801561054f57600080fd5b506103f261055e3660046132ac565b610f5a565b34801561056f57600080fd5b5061047c61057e366004613410565b610f80565b34801561058f57600080fd5b5061047c61059e3660046134be565b610fe7565b3480156105af57600080fd5b50604051600681526020016103c9565b3480156105cb57600080fd5b50610520600e5481565b3480156105e157600080fd5b5061047c6105f03660046134eb565b611041565b34801561060157600080fd5b50610520600a5481565b34801561061757600080fd5b5061062b610626366004613515565b611053565b6040516103c99190613566565b34801561064457600080fd5b5061047c610653366004613410565b6110ba565b34801561066457600080fd5b5030610451565b34801561067757600080fd5b506103bc61068636600461358f565b6110ed565b34801561069757600080fd5b5061047c6106a63660046135c2565b611192565b3480156106b757600080fd5b506103f26106c63660046134eb565b63ffffffff919091166000908152600160205260409020541490565b3480156106ee57600080fd5b506104517f000000000000000000000000000000000000000000000000000000000000000081565b34801561072257600080fd5b5061047c610731366004613612565b61133c565b34801561074257600080fd5b50610520610751366004613612565b6001600160a01b031660009081526005602052604090205490565b34801561077857600080fd5b5061047c611399565b34801561078d57600080fd5b506107a461079c3660046134eb565b600092915050565b6040516001600160401b0390911681526020016103c9565b3480156107c857600080fd5b506105207fd099cc98ef71107a616c4f0f941f04c322d8e254fe26b3c6668db87aae413de881565b3480156107fc57600080fd5b506103f261080b36600461362f565b6113ad565b34801561081c57600080fd5b50600d54610451906001600160a01b031681565b34801561083c57600080fd5b506000546001600160a01b0316610451565b34801561085a57600080fd5b506103bc6113c2565b34801561086f57600080fd5b506105207f000000000000000000000000000000000000000000000000000000000000000081565b3480156108a357600080fd5b506103f26108b2366004613612565b600c6020526000908152604090205460ff1681565b3480156108d357600080fd5b5060006103f2565b3480156108e757600080fd5b506105207f7c7c6cdb67a18743f49ec6fa9b35f50d52ed05cbed4cc592e13b44501c1a226781565b34801561091b57600080fd5b506103f261092a3660046130a2565b6113d1565b34801561093b57600080fd5b506105207fe4644086e8a3b62072909793091444e315dd8dd834b7254b719016d288dcb22281565b34801561096f57600080fd5b5061047c61097e366004613695565b6113df565b34801561098f57600080fd5b5061047c61099e3660046134be565b611412565b3480156109af57600080fd5b50600254610451906001600160a01b031681565b3480156109cf57600080fd5b5061047c6109de366004613707565b611466565b3480156109ef57600080fd5b506105206109fe366004613748565b60016020526000908152604090205481565b348015610a1c57600080fd5b506103bc610a2b366004613763565b611480565b61047c610a3e366004613707565b611628565b348015610a4f57600080fd5b506105207f8c4683701e219d6ca8113f7c79db8f87d733256705a9089b5af33287d6d095f981565b610a8a610a853660046137c3565b6117b2565b6040516103c9929190613830565b348015610aa457600080fd5b5061047c610ab3366004613612565b6117e6565b61047c610ac636600461320d565b61186c565b348015610ad757600080fd5b5061047c610ae6366004613612565b61189b565b348015610af757600080fd5b506105207f158b0a9edf7a828aad02f63cd515c68ef2f50ba807396f6d12842833a159742981565b348015610b2b57600080fd5b50610520610b3a366004613882565b6001600160a01b03918216600090815260066020908152604080832093909416825291909152205490565b348015610b7157600080fd5b5061047c610b803660046138b0565b6118f1565b348015610b9157600080fd5b506103f2610ba03660046130a2565b6001600160a01b03919091166000908152600b60209081526040808320938352929052205460ff1690565b348015610bd757600080fd5b5061047c610be63660046138b0565b61193e565b348015610bf757600080fd5b5061047c610c06366004613612565b6119a8565b348015610c1757600080fd5b506103f2610c26366004613932565b6119e6565b606060088054610c3a9061394e565b80601f0160208091040260200160405190810160405280929190818152602001828054610c669061394e565b8015610cb35780601f10610c8857610100808354040283529160200191610cb3565b820191906000526020600020905b815481529060010190602001808311610c9657829003601f168201915b5050505050905090565b600033610ccb818585611a1c565b60019150505b92915050565b60408051808201909152600080825260208201526060610d0a604051806040016040528060008152602001600081525090565b600080306001600160a01b031663fc0c546a6040518163ffffffff1660e01b8152600401602060405180830381865afa158015610d4b573d6000803e3d6000fd5b505050506040513d601f19601f82011682018060405250810190610d6f9190613982565b6001600160a01b03166318160ddd6040518163ffffffff1660e01b8152600401602060405180830381865afa158015610dac573d6000803e3d6000fd5b505050506040513d601f19601f82011682018060405250810190610dd0919061399f565b60408051808201825284815260208082018490528251600080825291810190935290975091925090610e25565b604080518082019091526000815260606020820152815260200190600190039081610dfd5790505b509350600080610e4a604089013560608a0135610e4560208c018c613748565b611a2e565b60408051808201909152918252602082015296989597505050505050565b7f00000000000000000000000000000000000000000000000000000000000000006001600160a01b03163314610eb8576040516391ac5e4f60e01b81523360048201526024015b60405180910390fd5b60208701803590610ed290610ecd908a613748565b611a6a565b14610f1057610ee46020880188613748565b60405163309afaf360e21b815263ffffffff909116600482015260208801356024820152604401610eaf565b610f1f87878787878787611aa6565b50505050505050565b610f30611cfa565b610f56610f456000546001600160a01b031690565b6001600160a01b0384169083611d27565b5050565b600033610f68858285611d86565b610f73858585611e05565b60019150505b9392505050565b6001600160a01b0389163314610fa85760405162461bcd60e51b8152600401610eaf906139b8565b610fdb7f8c4683701e219d6ca8113f7c79db8f87d733256705a9089b5af33287d6d095f98b8b8b8b8b8b8b8b8b8b611e64565b50505050505050505050565b610ff133826120c4565b600d54611008906001600160a01b03163383611d27565b60405181815233907f884edad9ce6fa2440d8a54cc123490eb96d2768479d49ff9c7366125a9424364906020015b60405180910390a250565b611049611cfa565b610f5682826120fa565b6040805180820190915260008082526020820152600061108360408501356060860135610e456020880188613748565b915050600080611093868461214f565b90925090506110b06110a86020880188613748565b838388612272565b9695505050505050565b610fdb7fe4644086e8a3b62072909793091444e315dd8dd834b7254b719016d288dcb2228b8b8b8b8b8b8b8b8b8b611e64565b6003602090815260009283526040808420909152908252902080546111119061394e565b80601f016020809104026020016040519081016040528092919081815260200182805461113d9061394e565b801561118a5780601f1061115f5761010080835404028352916020019161118a565b820191906000526020600020905b81548152906001019060200180831161116d57829003601f168201915b505050505081565b6001600160a01b0385166000908152600b60209081526040808320878452825291829020548251808401909352601e83527f454950333030393a20617574686f72697a6174696f6e206973207573656400009183019190915260ff161561120c5760405162461bcd60e51b8152600401610eaf919061307a565b50604080517f158b0a9edf7a828aad02f63cd515c68ef2f50ba807396f6d12842833a159742960208201526001600160a01b03871691810191909152606081018590526000906080016040516020818303038152906040529050856001600160a01b031661127f600a5486868686612353565b6001600160a01b0316146040518060400160405280601a81526020017f454950333030393a20696e76616c6964207369676e6174757265000000000000815250906112dd5760405162461bcd60e51b8152600401610eaf919061307a565b506001600160a01b0386166000818152600b60209081526040808320898452909152808220805460ff19166001179055518792917f1cdd46ff242716cdaa72d159d339a485b3438398348d68f09d7c8c0a59353d8191a3505050505050565b611344611cfa565b600480546001600160a01b0319166001600160a01b0383169081179091556040519081527ff0be4f1e87349231d80c36b33f9e8639658eeaf474014dee15a3e6a4d4414197906020015b60405180910390a150565b6113a1611cfa565b6113ab60006123b5565b565b6001600160a01b03811630145b949350505050565b606060098054610c3a9061394e565b600033610ccb818585611e05565b6113e7611cfa565b6001600160a01b03919091166000908152600c60205260409020805460ff1916911515919091179055565b600d5461142a906001600160a01b0316333084612405565b611434338261243e565b60405181815233907fe1fffcc4923d04b559f4d29a8bfc6cda04eb5b0d3c460751c2402c5c5cc9109c90602001611036565b61146e611cfa565b610f5661147b82846139f9565b612474565b63ffffffff8416600090815260036020908152604080832061ffff871684529091528120805460609291906114b49061394e565b80601f01602080910402602001604051908101604052809291908181526020018280546114e09061394e565b801561152d5780601f106115025761010080835404028352916020019161152d565b820191906000526020600020905b81548152906001019060200180831161151057829003601f168201915b50505050509050805160000361157d5783838080601f0160208091040260200160405190810160405280939291908181526020018383808284376000920191909152509294506113ba9350505050565b600083900361158d5790506113ba565b6002831061160b576115d484848080601f01602080910402602001604051908101604052809392919081815260200183838082843760009201919091525061257b92505050565b806115e28460028188613ace565b6040516020016115f493929190613af8565b6040516020818303038152906040529150506113ba565b8383604051639a6d49cd60e01b8152600401610eaf929190613b49565b60005b81811015611731573683838381811061164657611646613b5d565b90506020028101906116589190613b73565b905061168b61166a6020830183613748565b602083013563ffffffff919091166000908152600160205260409020541490565b6116955750611729565b3063d045a0dc60c08301358360a08101356116b4610100830183613b94565b6116c5610100890160e08a01613612565b6116d36101208a018a613b94565b6040518963ffffffff1660e01b81526004016116f59796959493929190613bef565b6000604051808303818588803b15801561170e57600080fd5b505af1158015611722573d6000803e3d6000fd5b5050505050505b60010161162b565b50336001600160a01b0316638e9e70996040518163ffffffff1660e01b8152600401600060405180830381865afa158015611770573d6000803e3d6000fd5b505050506040513d6000823e601f3d908101601f191682016040526117989190810190613cba565b604051638351eea760e01b8152600401610eaf919061307a565b6117ba612fe3565b60408051808201909152600080825260208201526117d98585856125a7565b915091505b935093915050565b6117ee611cfa565b60405163ca5eb5e160e01b81526001600160a01b0382811660048301527f0000000000000000000000000000000000000000000000000000000000000000169063ca5eb5e190602401600060405180830381600087803b15801561185157600080fd5b505af1158015611865573d6000803e3d6000fd5b5050505050565b33301461188c5760405163029a949d60e31b815260040160405180910390fd5b610f1f87878787878787610f10565b6118a3611cfa565b600280546001600160a01b0319166001600160a01b0383169081179091556040519081527fd48d879cef83a1c0bdda516f27b13ddb1b3f8bbac1c9e1511bb2a659c24277609060200161138e565b6119337fe4644086e8a3b62072909793091444e315dd8dd834b7254b719016d288dcb2228a8a8a8a8a8a604051806020016040528060008152508b8b8b611e64565b505050505050505050565b6001600160a01b03881633146119665760405162461bcd60e51b8152600401610eaf906139b8565b6119337f8c4683701e219d6ca8113f7c79db8f87d733256705a9089b5af33287d6d095f98a8a8a8a8a8a604051806020016040528060008152508b8b8b611e64565b6119b0611cfa565b6001600160a01b0381166119da57604051631e4fbdf760e01b815260006004820152602401610eaf565b6119e3816123b5565b50565b60006020820180359060019083906119fe9086613748565b63ffffffff1681526020810191909152604001600020541492915050565b611a2983838360016126a2565b505050565b600080611a3a85612777565b9150819050838110156117de576040516371c4efed60e01b81526004810182905260248101859052604401610eaf565b63ffffffff811660009081526001602052604081205480610cd15760405163f6ff4fb760e01b815263ffffffff84166004820152602401610eaf565b6000611ab286866127ae565b9050600080600083806020019051810190611acd9190613cee565b6001600160a01b0381166000908152600b60209081526040808320868452825291829020548251808401909352601e83527f454950333030393a20617574686f72697a6174696f6e20697320757365640000918301919091529397509195509350915060ff1615611b515760405162461bcd60e51b8152600401610eaf919061307a565b506001600160a01b0381166000818152600b60209081526040808320878452909152808220805460ff19166001179055518592917f98de503528ee59b575ef0c0a2576a82497bfc029a5685b209e9ec333479b10a591a36000611bba611bb78b8b6127f9565b90565b90506000611bd0611bcb8c8c612811565b612834565b90506001600160a01b0382163014611bfb57604051631e4ec46b60e01b815260040160405180910390fd5b600d546040516370a0823160e01b815230600482015282916001600160a01b0316906370a0823190602401602060405180830381865afa158015611c43573d6000803e3d6000fd5b505050506040513d601f19601f82011682018060405250810190611c67919061399f565b1015611c8657604051631e9acf1760e31b815260040160405180910390fd5b600d54611c9d906001600160a01b03168583611d27565b84846001600160a01b0316846001600160a01b03167fe63912cbd842264cf4bf112a395244a73bda3fcc002012d33cbd93e11ff3f0ff84604051611ce391815260200190565b60405180910390a450505050505050505050505050565b6000546001600160a01b031633146113ab5760405163118cdaa760e01b8152336004820152602401610eaf565b6040516001600160a01b03838116602483015260448201839052611a2991859182169063a9059cbb906064015b604051602081830303815290604052915060e01b6020820180516001600160e01b038381831617835250505050612869565b6001600160a01b03838116600090815260066020908152604080832093861683529290522054600019811015611dff5781811015611df057604051637dc7a0d960e11b81526001600160a01b03841660048201526024810182905260448101839052606401610eaf565b611dff848484840360006126a2565b50505050565b6001600160a01b038316611e2f57604051634b637e8f60e11b815260006004820152602401610eaf565b6001600160a01b038216611e595760405163ec442f0560e01b815260006004820152602401610eaf565b611a298383836128da565b864211611ec35760405162461bcd60e51b815260206004820152602760248201527f454950333030393a20617574686f72697a6174696f6e206973206e6f742079656044820152661d081d985b1a5960ca1b6064820152608401610eaf565b854210611f1c5760405162461bcd60e51b815260206004820152602160248201527f454950333030393a20617574686f72697a6174696f6e206973206578706972656044820152601960fa1b6064820152608401610eaf565b6001600160a01b038a166000908152600b60209081526040808320888452825291829020548251808401909352601e83527f454950333030393a20617574686f72697a6174696f6e206973207573656400009183019190915260ff1615611f965760405162461bcd60e51b8152600401610eaf919061307a565b5060008b8b8b8b8b8b8b8b604051602001611fb8989796959493929190613d38565b60405160208183030381529060405290508a6001600160a01b0316611fe2600a5486868686612353565b6001600160a01b0316146040518060400160405280601a81526020017f454950333030393a20696e76616c6964207369676e6174757265000000000000815250906120405760405162461bcd60e51b8152600401610eaf919061307a565b506001600160a01b038b166000818152600b602090815260408083208a8452909152808220805460ff19166001179055518892917f98de503528ee59b575ef0c0a2576a82497bfc029a5685b209e9ec333479b10a591a36120a28b8b8b6128da565b8451156120b6576120b68b8b8b89896128e5565b505050505050505050505050565b6001600160a01b0382166120ee57604051634b637e8f60e11b815260006004820152602401610eaf565b610f56826000836128da565b63ffffffff8216600081815260016020908152604091829020849055815192835282018390527f238399d427b947898edb290f5ff0f9109849b1c3ba196a42e35f00c50a54b98b910160405180910390a15050565b60608060006121ac856020013561216586612a09565b61217260a0890189613b94565b8080601f016020809104026020016040519081016040528093929190818152602001838380828437600092019190915250612a6392505050565b90935090506000816121bf5760016121c2565b60025b90506121e26121d46020880188613748565b82610a2b60808a018a613b94565b6004549093506001600160a01b031680156122685760405163043a78eb60e01b81526001600160a01b0382169063043a78eb906122259088908890600401613d91565b602060405180830381865afa158015612242573d6000803e3d6000fd5b505050506040513d601f19601f820116820180604052508101906122669190613db6565b505b5050509250929050565b60408051808201909152600080825260208201527f00000000000000000000000000000000000000000000000000000000000000006001600160a01b031663ddc28c586040518060a001604052808863ffffffff1681526020016122d589611a6a565b8152602001878152602001868152602001851515815250306040518363ffffffff1660e01b815260040161230a929190613dd3565b6040805180830381865afa158015612326573d6000803e3d6000fd5b505050506040513d601f19601f8201168201806040525081019061234a9190613e7c565b95945050505050565b60008086838051906020012060405160200161238692919061190160f01b81526002810192909252602282015260420190565b6040516020818303038152906040528051906020012090506123aa81878787612add565b979650505050505050565b600080546001600160a01b038381166001600160a01b0319831681178455604051919092169283917f8be0079c531659141344cd1fd0a4f28419497f9722a3daafe3b4186f6b6457e09190a35050565b6040516001600160a01b038481166024830152838116604483015260648201839052611dff9186918216906323b872dd90608401611d54565b6001600160a01b0382166124685760405163ec442f0560e01b815260006004820152602401610eaf565b610f56600083836128da565b60005b815181101561254b576124a682828151811061249557612495613b5d565b60200260200101516040015161257b565b8181815181106124b8576124b8613b5d565b602002602001015160400151600360008484815181106124da576124da613b5d565b60200260200101516000015163ffffffff1663ffffffff168152602001908152602001600020600084848151811061251457612514613b5d565b60200260200101516020015161ffff1661ffff16815260200190815260200160002090816125429190613ee8565b50600101612477565b507fbe4864a8e820971c0247f5992e2da559595f7bf076a21cb5928d443d2a13b6748160405161138e9190613fa7565b600281015161ffff8116600314610f565781604051639a6d49cd60e01b8152600401610eaf919061307a565b6125af612fe3565b60408051808201909152600080825260208201526000806125e633604089013560608a01356125e160208c018c613748565b612c89565b915091506000806125f7898461214f565b909250905061262361260c60208b018b613748565b838361261d368d90038d018d614032565b8b612caf565b60408051808201909152858152602080820186905282519298509096503391907f85496b760a4b7f8d66384b9df21b381f5d1b1e79f229a47aaf4c232edc2fe59a90612671908d018d613748565b6040805163ffffffff909216825260208201899052810187905260600160405180910390a350505050935093915050565b6001600160a01b0384166126cc5760405163e602df0560e01b815260006004820152602401610eaf565b6001600160a01b0383166126f657604051634a1406b160e11b815260006004820152602401610eaf565b6001600160a01b0380851660009081526006602090815260408083209387168352929052208290558015611dff57826001600160a01b0316846001600160a01b03167f8c5be1e5ebec7d5bd14f71427d1e84f3dd0314c0f7b2291e5b200ac8c7c3b9258460405161276991815260200190565b60405180910390a350505050565b60007f00000000000000000000000000000000000000000000000000000000000000006127a4818461407a565b610cd1919061409c565b60606127bd8260288186613ace565b8080601f016020809104026020016040519081016040528093929190818152602001838380828437600092019190915250929695505050505050565b60006128086020828486613ace565b610f79916140b3565b6000612821602860208486613ace565b61282a916140d1565b60c01c9392505050565b6000610cd17f00000000000000000000000000000000000000000000000000000000000000006001600160401b03841661409c565b600080602060008451602086016000885af18061288c576040513d6000823e3d81fd5b50506000513d915081156128a45780600114156128b1565b6001600160a01b0384163b155b15611dff57604051635274afe760e01b81526001600160a01b0385166004820152602401610eaf565b611a29838383612daf565b600080828060200190518101906128fc9190614101565b6001600160a01b0382166000908152600c6020526040902054919350915060ff16612945576040516305f112b360e41b81526001600160a01b0383166004820152602401610eaf565b600080836001600160a01b0316898989898760405160240161296b959493929190614151565b60408051601f198184030181529181526020820180516001600160e01b03166304c421b560e51b179052516129a0919061418b565b6000604051808303816000865af19150503d80600081146129dd576040519150601f19603f3d011682016040523d82523d6000602084013e6129e2565b606091505b50915091508161193357838160405163feca99cb60e01b8152600401610eaf92919061419d565b600080612a367f00000000000000000000000000000000000000000000000000000000000000008461407a565b90506001600160401b03811115610cd15760405163e2ce941360e01b815260048101829052602401610eaf565b8051606090151580612aac578484604051602001612a9892919091825260c01b6001600160c01b031916602082015260280190565b604051602081830303815290604052612ad3565b84843385604051602001612ac394939291906141c1565b6040516020818303038152906040525b9150935093915050565b60007f7fffffffffffffffffffffffffffffff5d576e7357a4501ddfe92f46681b20a0821115612b5e5760405162461bcd60e51b815260206004820152602660248201527f45435265636f7665723a20696e76616c6964207369676e6174757265202773276044820152652076616c756560d01b6064820152608401610eaf565b8360ff16601b14158015612b7657508360ff16601c14155b15612bd25760405162461bcd60e51b815260206004820152602660248201527f45435265636f7665723a20696e76616c6964207369676e6174757265202776276044820152652076616c756560d01b6064820152608401610eaf565b6040805160008082526020820180845288905260ff871692820192909252606081018590526080810184905260019060a0016020604051602081039080840390855afa158015612c26573d6000803e3d6000fd5b5050604051601f1901519150506001600160a01b03811661234a5760405162461bcd60e51b815260206004820152601c60248201527f45435265636f7665723a20696e76616c6964207369676e6174757265000000006044820152606401610eaf565b600080612c97858585611a2e565b9092509050612ca686836120c4565b94509492505050565b612cb7612fe3565b6000612cc68460000151612ed9565b602085015190915015612ce057612ce08460200151612f01565b7f00000000000000000000000000000000000000000000000000000000000000006001600160a01b0316632637a450826040518060a001604052808b63ffffffff168152602001612d308c611a6a565b81526020018a815260200189815260200160008960200151111515815250866040518463ffffffff1660e01b8152600401612d6c929190613dd3565b60806040518083038185885af1158015612d8a573d6000803e3d6000fd5b50505050506040513d601f19601f820116820180604052508101906123aa9190614204565b6001600160a01b038316612dda578060076000828254612dcf919061424e565b90915550612e4c9050565b6001600160a01b03831660009081526005602052604090205481811015612e2d5760405163391434e360e21b81526001600160a01b03851660048201526024810182905260448101839052606401610eaf565b6001600160a01b03841660009081526005602052604090209082900390555b6001600160a01b038216612e6857600780548290039055612e87565b6001600160a01b03821660009081526005602052604090208054820190555b816001600160a01b0316836001600160a01b03167fddf252ad1be2c89b69c2b068fc378daa952ba7f163c4a11628f55a4df523b3ef83604051612ecc91815260200190565b60405180910390a3505050565b6000813414612efd576040516304fb820960e51b8152346004820152602401610eaf565b5090565b60007f00000000000000000000000000000000000000000000000000000000000000006001600160a01b031663e4fe1d946040518163ffffffff1660e01b8152600401602060405180830381865afa158015612f61573d6000803e3d6000fd5b505050506040513d601f19601f82011682018060405250810190612f859190613982565b90506001600160a01b038116612fae576040516329b99a9560e11b815260040160405180910390fd5b610f566001600160a01b038216337f000000000000000000000000000000000000000000000000000000000000000085612405565b60405180606001604052806000801916815260200160006001600160401b03168152602001613025604051806040016040528060008152602001600081525090565b905290565b60005b8381101561304557818101518382015260200161302d565b50506000910152565b6000815180845261306681602086016020860161302a565b601f01601f19169290920160200192915050565b602081526000610f79602083018461304e565b6001600160a01b03811681146119e357600080fd5b600080604083850312156130b557600080fd5b82356130c08161308d565b946020939093013593505050565b600060e082840312156130e057600080fd5b50919050565b6000602082840312156130f857600080fd5b81356001600160401b0381111561310e57600080fd5b6113ba848285016130ce565b8351815260208085015190820152600060a08201604060a0604085015281865180845260c08601915060c08160051b8701019350602080890160005b838110156131955788870360bf190185528151805188528301518388018790526131828789018261304e565b9750509382019390820190600101613156565b505087516060880152505050602085015160808501525090506113ba565b6000606082840312156130e057600080fd5b60008083601f8401126131d757600080fd5b5081356001600160401b038111156131ee57600080fd5b60208301915083602082850101111561320657600080fd5b9250929050565b600080600080600080600060e0888a03121561322857600080fd5b61323289896131b3565b96506060880135955060808801356001600160401b038082111561325557600080fd5b6132618b838c016131c5565b909750955060a08a013591506132768261308d565b90935060c0890135908082111561328c57600080fd5b506132998a828b016131c5565b989b979a50959850939692959293505050565b6000806000606084860312156132c157600080fd5b83356132cc8161308d565b925060208401356132dc8161308d565b929592945050506040919091013590565b634e487b7160e01b600052604160045260246000fd5b604051606081016001600160401b0381118282101715613325576133256132ed565b60405290565b604080519081016001600160401b0381118282101715613325576133256132ed565b604051601f8201601f191681016001600160401b0381118282101715613375576133756132ed565b604052919050565b60006001600160401b03821115613396576133966132ed565b50601f01601f191660200190565b600082601f8301126133b557600080fd5b81356133c86133c38261337d565b61334d565b8181528460208386010111156133dd57600080fd5b816020850160208301376000918101602001919091529392505050565b803560ff8116811461340b57600080fd5b919050565b6000806000806000806000806000806101408b8d03121561343057600080fd5b8a3561343b8161308d565b995060208b013561344b8161308d565b985060408b0135975060608b0135965060808b0135955060a08b0135945060c08b01356001600160401b0381111561348257600080fd5b61348e8d828e016133a4565b94505061349d60e08c016133fa565b92506101008b013591506101208b013590509295989b9194979a5092959850565b6000602082840312156134d057600080fd5b5035919050565b803563ffffffff8116811461340b57600080fd5b600080604083850312156134fe57600080fd5b6130c0836134d7565b80151581146119e357600080fd5b6000806040838503121561352857600080fd5b82356001600160401b0381111561353e57600080fd5b61354a858286016130ce565b925050602083013561355b81613507565b809150509250929050565b815181526020808301519082015260408101610cd1565b803561ffff8116811461340b57600080fd5b600080604083850312156135a257600080fd5b6135ab836134d7565b91506135b96020840161357d565b90509250929050565b600080600080600060a086880312156135da57600080fd5b85356135e58161308d565b9450602086013593506135fa604087016133fa565b94979396509394606081013594506080013592915050565b60006020828403121561362457600080fd5b8135610f798161308d565b60008060008060a0858703121561364557600080fd5b61364f86866131b3565b935060608501356001600160401b0381111561366a57600080fd5b613676878288016131c5565b909450925050608085013561368a8161308d565b939692955090935050565b600080604083850312156136a857600080fd5b82356136b38161308d565b9150602083013561355b81613507565b60008083601f8401126136d557600080fd5b5081356001600160401b038111156136ec57600080fd5b6020830191508360208260051b850101111561320657600080fd5b6000806020838503121561371a57600080fd5b82356001600160401b0381111561373057600080fd5b61373c858286016136c3565b90969095509350505050565b60006020828403121561375a57600080fd5b610f79826134d7565b6000806000806060858703121561377957600080fd5b613782856134d7565b93506137906020860161357d565b925060408501356001600160401b038111156137ab57600080fd5b6137b7878288016131c5565b95989497509550505050565b600080600083850360808112156137d957600080fd5b84356001600160401b038111156137ef57600080fd5b6137fb878288016130ce565b9450506040601f198201121561381057600080fd5b5060208401915060608401356138258161308d565b809150509250925092565b600060c082019050835182526001600160401b036020850151166020830152604084015161386b604084018280518252602090810151910152565b5082516080830152602083015160a0830152610f79565b6000806040838503121561389557600080fd5b82356138a08161308d565b9150602083013561355b8161308d565b60008060008060008060008060006101208a8c0312156138cf57600080fd5b89356138da8161308d565b985060208a01356138ea8161308d565b975060408a0135965060608a0135955060808a0135945060a08a0135935061391460c08b016133fa565b925060e08a013591506101008a013590509295985092959850929598565b60006060828403121561394457600080fd5b610f7983836131b3565b600181811c9082168061396257607f821691505b6020821081036130e057634e487b7160e01b600052602260045260246000fd5b60006020828403121561399457600080fd5b8151610f798161308d565b6000602082840312156139b157600080fd5b5051919050565b60208082526021908201527f454950333030393a2063616c6c6572206d7573742062652074686520706179656040820152606560f81b606082015260800190565b60006001600160401b0380841115613a1357613a136132ed565b8360051b6020613a2481830161334d565b868152918501918181019036841115613a3c57600080fd5b865b84811015613ac257803586811115613a565760008081fd5b88016060368290031215613a6a5760008081fd5b613a72613303565b613a7b826134d7565b8152613a8886830161357d565b8682015260408083013589811115613aa05760008081fd5b613aac368286016133a4565b9183019190915250845250918301918301613a3e565b50979650505050505050565b60008085851115613ade57600080fd5b83861115613aeb57600080fd5b5050820193919092039150565b60008451613b0a81846020890161302a565b8201838582376000930192835250909392505050565b81835281816020850137506000828201602090810191909152601f909101601f19169091010190565b6020815260006113ba602083018486613b20565b634e487b7160e01b600052603260045260246000fd5b6000823561013e19833603018112613b8a57600080fd5b9190910192915050565b6000808335601e19843603018112613bab57600080fd5b8301803591506001600160401b03821115613bc557600080fd5b60200191503681900382131561320657600080fd5b6001600160401b03811681146119e357600080fd5b63ffffffff613bfd896134d7565b1681526020880135602082015260006040890135613c1a81613bda565b6001600160401b03811660408401525087606083015260e06080830152613c4560e083018789613b20565b6001600160a01b03861660a084015282810360c0840152613c67818587613b20565b9a9950505050505050505050565b600082601f830112613c8657600080fd5b8151613c946133c38261337d565b818152846020838601011115613ca957600080fd5b6113ba82602083016020870161302a565b600060208284031215613ccc57600080fd5b81516001600160401b03811115613ce257600080fd5b6113ba84828501613c75565b60008060008060808587031215613d0457600080fd5b8451613d0f8161308d565b602086015160408701519195509350613d278161308d565b606086015190925061368a8161308d565b60006101008a835260018060a01b03808b166020850152808a166040850152508760608401528660808401528560a08401528460c08401528060e0840152613d828184018561304e565b9b9a5050505050505050505050565b604081526000613da4604083018561304e565b828103602084015261234a818561304e565b600060208284031215613dc857600080fd5b8151610f7981613507565b6040815263ffffffff8351166040820152602083015160608201526000604084015160a06080840152613e0960e084018261304e565b90506060850151603f198483030160a0850152613e26828261304e565b60809690960151151560c08501525050506001600160a01b039190911660209091015290565b600060408284031215613e5e57600080fd5b613e6661332b565b9050815181526020820151602082015292915050565b600060408284031215613e8e57600080fd5b610f798383613e4c565b601f821115611a29576000816000526020600020601f850160051c81016020861015613ec15750805b601f850160051c820191505b81811015613ee057828155600101613ecd565b505050505050565b81516001600160401b03811115613f0157613f016132ed565b613f1581613f0f845461394e565b84613e98565b602080601f831160018114613f4a5760008415613f325750858301515b600019600386901b1c1916600185901b178555613ee0565b600085815260208120601f198616915b82811015613f7957888601518255948401946001909101908401613f5a565b5085821015613f975787850151600019600388901b60f8161c191681555b5050505050600190811b01905550565b600060208083018184528085518083526040925060408601915060408160051b87010184880160005b8381101561402457888303603f190185528151805163ffffffff1684528781015161ffff168885015286015160608785018190526140108186018361304e565b968901969450505090860190600101613fd0565b509098975050505050505050565b60006040828403121561404457600080fd5b61404c61332b565b82358152602083013560208201528091505092915050565b634e487b7160e01b600052601160045260246000fd5b60008261409757634e487b7160e01b600052601260045260246000fd5b500490565b8082028115828204841417610cd157610cd1614064565b80356020831015610cd157600019602084900360031b1b1692915050565b6001600160c01b031981358181169160088510156140f95780818660080360031b1b83161692505b505092915050565b6000806040838503121561411457600080fd5b825161411f8161308d565b60208401519092506001600160401b0381111561413b57600080fd5b61414785828601613c75565b9150509250929050565b6001600160a01b03868116825285166020820152604081018490526060810183905260a0608082018190526000906123aa9083018461304e565b60008251613b8a81846020870161302a565b6001600160a01b03831681526040602082018190526000906113ba9083018461304e565b8481526001600160401b0360c01b8460c01b166020820152826028820152600082516141f481604885016020870161302a565b9190910160480195945050505050565b60006080828403121561421657600080fd5b61421e613303565b82518152602083015161423081613bda565b60208201526142428460408501613e4c565b60408201529392505050565b80820180821115610cd157610cd161406456fea26469706673582212200f000d5695dbbfb61127546df58be0da1bcc089e772b1711849a5126bb26430b64736f6c63430008160033",
  "devdoc": {
    "errors": {
      "ERC20InsufficientAllowance(address,uint256,uint256)": [
        {
          "details": "Indicates a failure with the `spender`s `allowance`. Used in transfers.",
          "params": {
            "allowance": "Amount of tokens a `spender` is allowed to operate with.",
            "needed": "Minimum amount required to perform a transfer.",
            "spender": "Address that may be allowed to operate on tokens without being their owner."
          }
        }
      ],
      "ERC20InsufficientBalance(address,uint256,uint256)": [
        {
          "details": "Indicates an error related to the current `balance` of a `sender`. Used in transfers.",
          "params": {
            "balance": "Current balance for the interacting account.",
            "needed": "Minimum amount required to perform a transfer.",
            "sender": "Address whose tokens are being transferred."
          }
        }
      ],
      "ERC20InvalidApprover(address)": [
        {
          "details": "Indicates a failure with the `approver` of a token to be approved. Used in approvals.",
          "params": {
            "approver": "Address initiating an approval operation."
          }
        }
      ],
      "ERC20InvalidReceiver(address)": [
        {
          "details": "Indicates a failure with the token `receiver`. Used in transfers.",
          "params": {
            "receiver": "Address to which tokens are being transferred."
          }
        }
      ],
      "ERC20InvalidSender(address)": [
        {
          "details": "Indicates a failure with the token `sender`. Used in transfers.",
          "params": {
            "sender": "Address whose tokens are being transferred."
          }
        }
      ],
      "ERC20InvalidSpender(address)": [
        {
          "details": "Indicates a failure with the `spender` to be approved. Used in approvals.",
          "params": {
            "spender": "Address that may be allowed to operate on tokens without being their owner."
          }
        }
      ],
      "OwnableInvalidOwner(address)": [
        {
          "details": "The owner is not a valid owner account. (eg. `address(0)`)"
        }
      ],
      "OwnableUnauthorizedAccount(address)": [
        {
          "details": "The caller account is not authorized to perform an operation."
        }
      ],
      "SafeERC20FailedOperation(address)": [
        {
          "details": "An operation with an ERC-20 token failed."
        }
      ]
    },
    "events": {
      "Approval(address,address,uint256)": {
        "details": "Emitted when the allowance of a `spender` for an `owner` is set by a call to {approve}. `value` is the new allowance."
      },
      "PreCrimeSet(address)": {
        "details": "Emitted when the preCrime contract address is set.",
        "params": {
          "preCrimeAddress": "The address of the preCrime contract."
        }
      },
      "Transfer(address,address,uint256)": {
        "details": "Emitted when `value` tokens are moved from one account (`from`) to another (`to`). Note that `value` may be zero."
      }
    },
    "kind": "dev",
    "methods": {
      "allowInitializePath((uint32,bytes32,uint64))": {
        "details": "This indicates to the endpoint that the OApp has enabled msgs for this particular path to be received.This defaults to assuming if a peer has been set, its initialized. Can be overridden by the OApp if there is other logic to determine this.",
        "params": {
          "origin": "The origin information containing the source endpoint and sender address."
        },
        "returns": {
          "_0": "Whether the path has been initialized."
        }
      },
      "allowance(address,address)": {
        "details": "Returns the remaining number of tokens that `spender` will be allowed to spend on behalf of `owner` through {transferFrom}. This is zero by default. This value changes when {approve} or {transferFrom} are called."
      },
      "approvalRequired()": {
        "details": "In the case of OFT where the contract IS the token, approval is NOT required.",
        "returns": {
          "_0": "requiresApproval Needs approval of the underlying token implementation."
        }
      },
      "approve(address,uint256)": {
        "details": "See {IERC20-approve}. NOTE: If `value` is the maximum `uint256`, the allowance is not updated on `transferFrom`. This is semantically equivalent to an infinite approval. Requirements: - `spender` cannot be the zero address."
      },
      "authorizationState(address,bytes32)": {
        "details": "Nonces are randomly generated 32-byte data unique to the authorizer's address",
        "params": {
          "authorizer": "Authorizer's address",
          "nonce": "Nonce of the authorization"
        },
        "returns": {
          "_0": "True if the nonce is used"
        }
      },
      "balanceOf(address)": {
        "details": "Returns the value of tokens owned by `account`."
      },
      "cancelAuthorization(address,bytes32,uint8,bytes32,bytes32)": {
        "params": {
          "authorizer": "Authorizer's address",
          "nonce": "Nonce of the authorization",
          "r": "r of the signature",
          "s": "s of the signature",
          "v": "v of the signature"
        }
      },
      "combineOptions(uint32,uint16,bytes)": {
        "details": "If there is an enforced lzReceive option: - {gasLimit: 200k, msg.value: 1 ether} AND a caller supplies a lzReceive option: {gasLimit: 100k, msg.value: 0.5 ether} - The resulting options will be {gasLimit: 300k, msg.value: 1.5 ether} when the message is executed on the remote lzReceive() function.This presence of duplicated options is handled off-chain in the verifier/executor.",
        "params": {
          "_eid": "The endpoint ID.",
          "_extraOptions": "Additional options passed by the caller.",
          "_msgType": "The OAPP message type."
        },
        "returns": {
          "_0": "options The combination of caller specified options AND enforced options."
        }
      },
      "decimals()": {
        "details": "Returns the number of decimals used to get its user representation. For example, if `decimals` equals `2`, a balance of `505` tokens should be displayed to a user as `5.05` (`505 / 10 ** 2`). Tokens usually opt for a value of 18, imitating the relationship between Ether and Wei. This is the default value returned by this function, unless it's overridden. NOTE: This information is only used for _display_ purposes: it in no way affects any of the arithmetic of the contract, including {IERC20-balanceOf} and {IERC20-transfer}."
      },
      "isComposeMsgSender((uint32,bytes32,uint64),bytes,address)": {
        "details": "_origin The origin information containing the source endpoint and sender address.  - srcEid: The source chain endpoint ID.  - sender: The sender address on the src chain.  - nonce: The nonce of the message._message The lzReceive payload.Applications can optionally choose to implement separate composeMsg senders that are NOT the bridging layer.The default sender IS the OAppReceiver implementer.",
        "params": {
          "_sender": "The sender address."
        },
        "returns": {
          "_0": "isSender Is a valid sender."
        }
      },
      "isPeer(uint32,bytes32)": {
        "details": "Check if the peer is considered 'trusted' by the OApp.Enables OAppPreCrimeSimulator to check whether a potential Inbound Packet is from a trusted source.",
        "params": {
          "_eid": "The endpoint ID to check.",
          "_peer": "The peer to check."
        },
        "returns": {
          "_0": "Whether the peer passed is considered 'trusted' by the OApp."
        }
      },
      "lzReceive((uint32,bytes32,uint64),bytes32,bytes,address,bytes)": {
        "details": "Entry point for receiving messages or packets from the endpoint.Entry point for receiving msg/packet from the LayerZero endpoint.",
        "params": {
          "_executor": "The address of the executor for the received message.",
          "_extraData": "Additional arbitrary data provided by the corresponding executor.",
          "_guid": "The unique identifier for the received LayerZero message.",
          "_message": "The payload of the received message.",
          "_origin": "The origin information containing the source endpoint and sender address.  - srcEid: The source chain endpoint ID.  - sender: The sender address on the src chain.  - nonce: The nonce of the message."
        }
      },
      "lzReceiveAndRevert(((uint32,bytes32,uint64),uint32,address,bytes32,uint256,address,bytes,bytes)[])": {
        "details": "Interface for pre-crime simulations. Always reverts at the end with the simulation results.WARNING: MUST revert at the end with the simulation results.Gives the preCrime implementation the ability to mock sending packets to the lzReceive function, WITHOUT actually executing them.",
        "params": {
          "_packets": "An array of InboundPacket objects representing received packets to be delivered."
        }
      },
      "lzReceiveSimulate((uint32,bytes32,uint64),bytes32,bytes,address,bytes)": {
        "details": "Is effectively an internal function because msg.sender must be address(this). Allows resetting the call stack for 'internal' calls.",
        "params": {
          "_executor": "The executor address for the packet.",
          "_extraData": "Additional data for the packet.",
          "_guid": "The unique identifier of the packet.",
          "_message": "The message payload of the packet.",
          "_origin": "The origin information containing the source endpoint and sender address.  - srcEid: The source chain endpoint ID.  - sender: The sender address on the src chain.  - nonce: The nonce of the message."
        }
      },
      "name()": {
        "details": "Returns the name of the token."
      },
      "nextNonce(uint32,bytes32)": {
        "details": "_srcEid The source endpoint ID._sender The sender address.The path nonce starts from 1. If 0 is returned it means that there is NO nonce ordered enforcement.Is required by the off-chain executor to determine the OApp expects msg execution is ordered.This is also enforced by the OApp.By default this is NOT enabled. ie. nextNonce is hardcoded to return 0.",
        "returns": {
          "nonce": "The next nonce."
        }
      },
      "oApp()": {
        "details": "Retrieves the address of the OApp contract.The simulator contract is the base contract for the OApp by default.If the simulator is a separate contract, override this function.",
        "returns": {
          "_0": "The address of the OApp contract."
        }
      },
      "oAppVersion()": {
        "returns": {
          "receiverVersion": "The version of the OAppReceiver.sol implementation.",
          "senderVersion": "The version of the OAppSender.sol implementation."
        }
      },
      "oftVersion()": {
        "details": "interfaceId: This specific interface ID is '0x02e49c2c'.version: Indicates a cross-chain compatible msg encoding with other OFTs.If a new feature is added to the OFT cross-chain msg encoding, the version will be incremented. ie. localOFT version(x,1) CAN send messages to remoteOFT version(x,1)",
        "returns": {
          "interfaceId": "The interface ID.",
          "version": "The version."
        }
      },
      "owner()": {
        "details": "Returns the address of the current owner."
      },
      "quoteOFT((uint32,bytes32,uint256,uint256,bytes,bytes,bytes))": {
        "params": {
          "_sendParam": "The parameters for the send operation."
        },
        "returns": {
          "oftFeeDetails": "The details of OFT fees.",
          "oftLimit": "The OFT limit information.",
          "oftReceipt": "The OFT receipt information."
        }
      },
      "quoteSend((uint32,bytes32,uint256,uint256,bytes,bytes,bytes),bool)": {
        "details": "MessagingFee: LayerZero msg fee  - nativeFee: The native fee.  - lzTokenFee: The lzToken fee.",
        "params": {
          "_payInLzToken": "Flag indicating whether the caller is paying in the LZ token.",
          "_sendParam": "The parameters for the send() operation."
        },
        "returns": {
          "msgFee": "The calculated LayerZero messaging fee from the send() operation."
        }
      },
      "receiveWithAuthorization(address,address,uint256,uint256,uint256,bytes32,bytes,uint8,bytes32,bytes32)": {
        "details": "This has an additional check to ensure that the payee's address matches the caller of this function to prevent front-running attacks. (See security considerations)",
        "params": {
          "from": "Payer's address (Authorizer)",
          "nonce": "Unique nonce",
          "r": "r of the signature",
          "s": "s of the signature",
          "to": "Payee's address",
          "v": "v of the signature",
          "validAfter": "The time after which this is valid (unix time)",
          "validBefore": "The time before which this is valid (unix time)",
          "value": "Amount to be transferred"
        }
      },
      "receiveWithAuthorization(address,address,uint256,uint256,uint256,bytes32,uint8,bytes32,bytes32)": {
        "details": "This has an additional check to ensure that the payee's address matches the caller of this function to prevent front-running attacks. (See security considerations)",
        "params": {
          "from": "Payer's address (Authorizer)",
          "nonce": "Unique nonce",
          "r": "r of the signature",
          "s": "s of the signature",
          "to": "Payee's address",
          "v": "v of the signature",
          "validAfter": "The time after which this is valid (unix time)",
          "validBefore": "The time before which this is valid (unix time)",
          "value": "Amount to be transferred"
        }
      },
      "renounceOwnership()": {
        "details": "Leaves the contract without owner. It will not be possible to call `onlyOwner` functions. Can only be called by the current owner. NOTE: Renouncing ownership will leave the contract without an owner, thereby disabling any functionality that is only available to the owner."
      },
      "send((uint32,bytes32,uint256,uint256,bytes,bytes,bytes),(uint256,uint256),address)": {
        "details": "Executes the send operation.MessagingReceipt: LayerZero msg receipt  - guid: The unique identifier for the sent message.  - nonce: The nonce of the sent message.  - fee: The LayerZero fee incurred for the message.",
        "params": {
          "_fee": "The calculated fee for the send() operation.      - nativeFee: The native fee.      - lzTokenFee: The lzToken fee.",
          "_refundAddress": "The address to receive any excess funds.",
          "_sendParam": "The parameters for the send operation."
        },
        "returns": {
          "msgReceipt": "The receipt for the send operation.",
          "oftReceipt": "The OFT receipt information."
        }
      },
      "setDelegate(address)": {
        "details": "Only the owner/admin of the OApp can call this function.Provides the ability for a delegate to set configs, on behalf of the OApp, directly on the Endpoint contract.",
        "params": {
          "_delegate": "The address of the delegate to be set."
        }
      },
      "setEnforcedOptions((uint32,uint16,bytes)[])": {
        "details": "Sets the enforced options for specific endpoint and message type combinations.Only the owner/admin of the OApp can call this function.Provides a way for the OApp to enforce things like paying for PreCrime, AND/OR minimum dst lzReceive gas amounts etc.These enforced options can vary as the potential options/execution on the remote may differ as per the msgType. eg. Amount of lzReceive() gas necessary to deliver a lzCompose() message adds overhead you dont want to pay if you are only making a standard LayerZero message ie. lzReceive() WITHOUT sendCompose().",
        "params": {
          "_enforcedOptions": "An array of EnforcedOptionParam structures specifying enforced options."
        }
      },
      "setMsgInspector(address)": {
        "details": "Sets the message inspector address for the OFT.This is an optional contract that can be used to inspect both 'message' and 'options'.Set it to address(0) to disable it, or set it to a contract address to enable it.",
        "params": {
          "_msgInspector": "The address of the message inspector."
        }
      },
      "setPeer(uint32,bytes32)": {
        "details": "Only the owner/admin of the OApp can call this function.Indicates that the peer is trusted to send LayerZero messages to this OApp.Set this to bytes32(0) to remove the peer address.Peer is a bytes32 to accommodate non-evm chains.",
        "params": {
          "_eid": "The endpoint ID.",
          "_peer": "The address of the peer to be associated with the corresponding endpoint."
        }
      },
      "setPreCrime(address)": {
        "details": "Sets the preCrime contract address.",
        "params": {
          "_preCrime": "The address of the preCrime contract."
        }
      },
      "sharedDecimals()": {
        "details": "Retrieves the shared decimals of the OFT.Sets an implicit cap on the amount of tokens, over uint64.max() will need some sort of outbound cap / totalSupply cap Lowest common decimal denominator between chains. Defaults to 6 decimal places to provide up to 18,446,744,073,709.551615 units (max uint64). For tokens exceeding this totalSupply(), they will need to override the sharedDecimals function with something smaller. ie. 4 sharedDecimals would be 1,844,674,407,370,955.1615",
        "returns": {
          "_0": "The shared decimals of the OFT."
        }
      },
      "symbol()": {
        "details": "Returns the symbol of the token, usually a shorter version of the name."
      },
      "token()": {
        "details": "Retrieves the address of the underlying ERC20 implementation.In the case of OFT, address(this) and erc20 are the same contract.",
        "returns": {
          "_0": "The address of the OFT token."
        }
      },
      "totalSupply()": {
        "details": "Returns the value of tokens in existence."
      },
      "transfer(address,uint256)": {
        "details": "See {IERC20-transfer}. Requirements: - `to` cannot be the zero address. - the caller must have a balance of at least `value`."
      },
      "transferFrom(address,address,uint256)": {
        "details": "See {IERC20-transferFrom}. Skips emitting an {Approval} event indicating an allowance update. This is not required by the ERC. See {xref-ERC20-_approve-address-address-uint256-bool-}[_approve]. NOTE: Does not update the allowance if the current allowance is the maximum `uint256`. Requirements: - `from` and `to` cannot be the zero address. - `from` must have a balance of at least `value`. - the caller must have allowance for ``from``'s tokens of at least `value`."
      },
      "transferOwnership(address)": {
        "details": "Transfers ownership of the contract to a new account (`newOwner`). Can only be called by the current owner."
      },
      "transferWithAuthorization(address,address,uint256,uint256,uint256,bytes32,bytes,uint8,bytes32,bytes32)": {
        "params": {
          "data": "Additional data to be included in the authorization",
          "from": "Payer's address (Authorizer)",
          "nonce": "Unique nonce",
          "r": "r of the signature",
          "s": "s of the signature",
          "to": "Payee's address",
          "v": "v of the signature",
          "validAfter": "The time after which this is valid (unix time)",
          "validBefore": "The time before which this is valid (unix time)",
          "value": "Amount to be transferred"
        }
      },
      "transferWithAuthorization(address,address,uint256,uint256,uint256,bytes32,uint8,bytes32,bytes32)": {
        "params": {
          "from": "Payer's address (Authorizer)",
          "nonce": "Unique nonce",
          "r": "r of the signature",
          "s": "s of the signature",
          "to": "Payee's address",
          "v": "v of the signature",
          "validAfter": "The time after which this is valid (unix time)",
          "validBefore": "The time before which this is valid (unix time)",
          "value": "Amount to be transferred"
        }
      }
    },
    "version": 1
  },
  "userdoc": {
    "errors": {
      "ExecutionFailed(address,bytes)": [
        {
          "notice": "Thrown when a required command has failed"
        }
      ],
      "UnauthorizedRouter(address)": [
        {
          "notice": "Thrown when an unauthorized router is called"
        }
      ]
    },
    "kind": "user",
    "methods": {
      "allowInitializePath((uint32,bytes32,uint64))": {
        "notice": "Checks if the path initialization is allowed based on the provided origin."
      },
      "approvalRequired()": {
        "notice": "Indicates whether the OFT contract requires approval of the 'token()' to send."
      },
      "authorizationState(address,bytes32)": {
        "notice": "Returns the state of an authorization"
      },
      "cancelAuthorization(address,bytes32,uint8,bytes32,bytes32)": {
        "notice": "Attempt to cancel an authorization"
      },
      "combineOptions(uint32,uint16,bytes)": {
        "notice": "Combines options for a given endpoint and message type."
      },
      "endpoint()": {
        "notice": "Retrieves the LayerZero endpoint associated with the OApp."
      },
      "isComposeMsgSender((uint32,bytes32,uint64),bytes,address)": {
        "notice": "Indicates whether an address is an approved composeMsg sender to the Endpoint."
      },
      "nextNonce(uint32,bytes32)": {
        "notice": "Retrieves the next nonce for a given source endpoint and sender address."
      },
      "oAppVersion()": {
        "notice": "Retrieves the OApp version information."
      },
      "oftVersion()": {
        "notice": "Retrieves interfaceID and the version of the OFT."
      },
      "peers(uint32)": {
        "notice": "Retrieves the peer (OApp) associated with a corresponding endpoint."
      },
      "quoteOFT((uint32,bytes32,uint256,uint256,bytes,bytes,bytes))": {
        "notice": "Provides the fee breakdown and settings data for an OFT. Unused in the default implementation."
      },
      "quoteSend((uint32,bytes32,uint256,uint256,bytes,bytes,bytes),bool)": {
        "notice": "Provides a quote for the send() operation."
      },
      "receiveWithAuthorization(address,address,uint256,uint256,uint256,bytes32,bytes,uint8,bytes32,bytes32)": {
        "notice": "Receive a transfer with a signed authorization from the payer"
      },
      "receiveWithAuthorization(address,address,uint256,uint256,uint256,bytes32,uint8,bytes32,bytes32)": {
        "notice": "Receive a transfer with a signed authorization from the payer"
      },
      "setDelegate(address)": {
        "notice": "Sets the delegate address for the OApp."
      },
      "setPeer(uint32,bytes32)": {
        "notice": "Sets the peer address (OApp instance) for a corresponding endpoint."
      },
      "transferWithAuthorization(address,address,uint256,uint256,uint256,bytes32,bytes,uint8,bytes32,bytes32)": {
        "notice": "Execute a transfer with a signed authorization"
      },
      "transferWithAuthorization(address,address,uint256,uint256,uint256,bytes32,uint8,bytes32,bytes32)": {
        "notice": "Execute a transfer with a signed authorization"
      }
    },
    "version": 1
  },
  "storageLayout": {
    "storage": [
      {
        "astId": 7514,
        "contract": "contracts/USDO.sol:USDO",
        "label": "_owner",
        "offset": 0,
        "slot": "0",
        "type": "t_address"
      },
      {
        "astId": 3987,
        "contract": "contracts/USDO.sol:USDO",
        "label": "peers",
        "offset": 0,
        "slot": "1",
        "type": "t_mapping(t_uint32,t_bytes32)"
      },
      {
        "astId": 5171,
        "contract": "contracts/USDO.sol:USDO",
        "label": "preCrime",
        "offset": 0,
        "slot": "2",
        "type": "t_address"
      },
      {
        "astId": 4603,
        "contract": "contracts/USDO.sol:USDO",
        "label": "enforcedOptions",
        "offset": 0,
        "slot": "3",
        "type": "t_mapping(t_uint32,t_mapping(t_uint16,t_bytes_storage))"
      },
      {
        "astId": 5791,
        "contract": "contracts/USDO.sol:USDO",
        "label": "msgInspector",
        "offset": 0,
        "slot": "4",
        "type": "t_address"
      },
      {
        "astId": 7903,
        "contract": "contracts/USDO.sol:USDO",
        "label": "_balances",
        "offset": 0,
        "slot": "5",
        "type": "t_mapping(t_address,t_uint256)"
      },
      {
        "astId": 7909,
        "contract": "contracts/USDO.sol:USDO",
        "label": "_allowances",
        "offset": 0,
        "slot": "6",
        "type": "t_mapping(t_address,t_mapping(t_address,t_uint256))"
      },
      {
        "astId": 7911,
        "contract": "contracts/USDO.sol:USDO",
        "label": "_totalSupply",
        "offset": 0,
        "slot": "7",
        "type": "t_uint256"
      },
      {
        "astId": 7913,
        "contract": "contracts/USDO.sol:USDO",
        "label": "_name",
        "offset": 0,
        "slot": "8",
        "type": "t_string_storage"
      },
      {
        "astId": 7915,
        "contract": "contracts/USDO.sol:USDO",
        "label": "_symbol",
        "offset": 0,
        "slot": "9",
        "type": "t_string_storage"
      },
      {
        "astId": 13645,
        "contract": "contracts/USDO.sol:USDO",
        "label": "DOMAIN_SEPARATOR",
        "offset": 0,
        "slot": "10",
        "type": "t_bytes32"
      },
      {
        "astId": 13278,
        "contract": "contracts/USDO.sol:USDO",
        "label": "_authorizationStates",
        "offset": 0,
        "slot": "11",
        "type": "t_mapping(t_address,t_mapping(t_bytes32,t_bool))"
      },
      {
        "astId": 10899,
        "contract": "contracts/USDO.sol:USDO",
        "label": "authorizedRouters",
        "offset": 0,
        "slot": "12",
        "type": "t_mapping(t_address,t_bool)"
      },
      {
        "astId": 12797,
        "contract": "contracts/USDO.sol:USDO",
        "label": "USDC",
        "offset": 0,
        "slot": "13",
        "type": "t_contract(ERC20)8395"
      },
      {
        "astId": 12800,
        "contract": "contracts/USDO.sol:USDO",
        "label": "_decimals",
        "offset": 0,
        "slot": "14",
        "type": "t_uint256"
      }
    ],
    "types": {
      "t_address": {
        "encoding": "inplace",
        "label": "address",
        "numberOfBytes": "20"
      },
      "t_bool": {
        "encoding": "inplace",
        "label": "bool",
        "numberOfBytes": "1"
      },
      "t_bytes32": {
        "encoding": "inplace",
        "label": "bytes32",
        "numberOfBytes": "32"
      },
      "t_bytes_storage": {
        "encoding": "bytes",
        "label": "bytes",
        "numberOfBytes": "32"
      },
      "t_contract(ERC20)8395": {
        "encoding": "inplace",
        "label": "contract ERC20",
        "numberOfBytes": "20"
      },
      "t_mapping(t_address,t_bool)": {
        "encoding": "mapping",
        "key": "t_address",
        "label": "mapping(address => bool)",
        "numberOfBytes": "32",
        "value": "t_bool"
      },
      "t_mapping(t_address,t_mapping(t_address,t_uint256))": {
        "encoding": "mapping",
        "key": "t_address",
        "label": "mapping(address => mapping(address => uint256))",
        "numberOfBytes": "32",
        "value": "t_mapping(t_address,t_uint256)"
      },
      "t_mapping(t_address,t_mapping(t_bytes32,t_bool))": {
        "encoding": "mapping",
        "key": "t_address",
        "label": "mapping(address => mapping(bytes32 => bool))",
        "numberOfBytes": "32",
        "value": "t_mapping(t_bytes32,t_bool)"
      },
      "t_mapping(t_address,t_uint256)": {
        "encoding": "mapping",
        "key": "t_address",
        "label": "mapping(address => uint256)",
        "numberOfBytes": "32",
        "value": "t_uint256"
      },
      "t_mapping(t_bytes32,t_bool)": {
        "encoding": "mapping",
        "key": "t_bytes32",
        "label": "mapping(bytes32 => bool)",
        "numberOfBytes": "32",
        "value": "t_bool"
      },
      "t_mapping(t_uint16,t_bytes_storage)": {
        "encoding": "mapping",
        "key": "t_uint16",
        "label": "mapping(uint16 => bytes)",
        "numberOfBytes": "32",
        "value": "t_bytes_storage"
      },
      "t_mapping(t_uint32,t_bytes32)": {
        "encoding": "mapping",
        "key": "t_uint32",
        "label": "mapping(uint32 => bytes32)",
        "numberOfBytes": "32",
        "value": "t_bytes32"
      },
      "t_mapping(t_uint32,t_mapping(t_uint16,t_bytes_storage))": {
        "encoding": "mapping",
        "key": "t_uint32",
        "label": "mapping(uint32 => mapping(uint16 => bytes))",
        "numberOfBytes": "32",
        "value": "t_mapping(t_uint16,t_bytes_storage)"
      },
      "t_string_storage": {
        "encoding": "bytes",
        "label": "string",
        "numberOfBytes": "32"
      },
      "t_uint16": {
        "encoding": "inplace",
        "label": "uint16",
        "numberOfBytes": "2"
      },
      "t_uint256": {
        "encoding": "inplace",
        "label": "uint256",
        "numberOfBytes": "32"
      },
      "t_uint32": {
        "encoding": "inplace",
        "label": "uint32",
        "numberOfBytes": "4"
      }
    }
  }
}